{
    "contractName": "Admin",
    "abi": [
        {
            "inputs": [],
            "stateMutability": "nonpayable",
            "type": "constructor"
        },
        {
            "inputs": [
                {
                    "internalType": "address",
                    "name": "caller",
                    "type": "address"
                }
            ],
            "name": "InvalidCaller",
            "type": "error"
        },
        {
            "inputs": [
                {
                    "internalType": "enum Admin.Role",
                    "name": "current",
                    "type": "uint8"
                },
                {
                    "internalType": "enum Admin.Role",
                    "name": "requested",
                    "type": "uint8"
                }
            ],
            "name": "InvalidRole",
            "type": "error"
        },
        {
            "anonymous": false,
            "inputs": [
                {
                    "indexed": true,
                    "internalType": "address",
                    "name": "account",
                    "type": "address"
                }
            ],
            "name": "ConsumerAdded",
            "type": "event"
        },
        {
            "anonymous": false,
            "inputs": [
                {
                    "indexed": true,
                    "internalType": "address",
                    "name": "account",
                    "type": "address"
                }
            ],
            "name": "DeliverAdded",
            "type": "event"
        },
        {
            "anonymous": false,
            "inputs": [
                {
                    "indexed": true,
                    "internalType": "address",
                    "name": "account",
                    "type": "address"
                }
            ],
            "name": "FarmerAdded",
            "type": "event"
        },
        {
            "anonymous": false,
            "inputs": [
                {
                    "indexed": true,
                    "internalType": "address",
                    "name": "account",
                    "type": "address"
                }
            ],
            "name": "FoodFactoryAdded",
            "type": "event"
        },
        {
            "anonymous": false,
            "inputs": [
                {
                    "indexed": true,
                    "internalType": "address",
                    "name": "account",
                    "type": "address"
                }
            ],
            "name": "MarketAdded",
            "type": "event"
        },
        {
            "anonymous": false,
            "inputs": [
                {
                    "indexed": true,
                    "internalType": "address",
                    "name": "requester",
                    "type": "address"
                },
                {
                    "indexed": true,
                    "internalType": "enum Admin.Role",
                    "name": "role",
                    "type": "uint8"
                }
            ],
            "name": "addRequest",
            "type": "event"
        },
        {
            "anonymous": false,
            "inputs": [
                {
                    "indexed": true,
                    "internalType": "address",
                    "name": "requester",
                    "type": "address"
                },
                {
                    "indexed": true,
                    "internalType": "enum Admin.Role",
                    "name": "role",
                    "type": "uint8"
                }
            ],
            "name": "approveRequest",
            "type": "event"
        },
        {
            "inputs": [
                {
                    "internalType": "address",
                    "name": "account",
                    "type": "address"
                }
            ],
            "name": "isConsumer",
            "outputs": [
                {
                    "internalType": "bool",
                    "name": "",
                    "type": "bool"
                }
            ],
            "stateMutability": "view",
            "type": "function"
        },
        {
            "inputs": [
                {
                    "internalType": "address",
                    "name": "account",
                    "type": "address"
                }
            ],
            "name": "isDeliver",
            "outputs": [
                {
                    "internalType": "bool",
                    "name": "",
                    "type": "bool"
                }
            ],
            "stateMutability": "view",
            "type": "function"
        },
        {
            "inputs": [
                {
                    "internalType": "address",
                    "name": "account",
                    "type": "address"
                }
            ],
            "name": "isFarmer",
            "outputs": [
                {
                    "internalType": "bool",
                    "name": "",
                    "type": "bool"
                }
            ],
            "stateMutability": "view",
            "type": "function"
        },
        {
            "inputs": [
                {
                    "internalType": "address",
                    "name": "account",
                    "type": "address"
                }
            ],
            "name": "isFoodFactory",
            "outputs": [
                {
                    "internalType": "bool",
                    "name": "",
                    "type": "bool"
                }
            ],
            "stateMutability": "view",
            "type": "function"
        },
        {
            "inputs": [
                {
                    "internalType": "address",
                    "name": "account",
                    "type": "address"
                }
            ],
            "name": "isMarket",
            "outputs": [
                {
                    "internalType": "bool",
                    "name": "",
                    "type": "bool"
                }
            ],
            "stateMutability": "view",
            "type": "function"
        },
        {
            "inputs": [
                {
                    "internalType": "address",
                    "name": "requester",
                    "type": "address"
                },
                {
                    "internalType": "enum Admin.Role",
                    "name": "role",
                    "type": "uint8"
                }
            ],
            "name": "requestAdd",
            "outputs": [],
            "stateMutability": "nonpayable",
            "type": "function"
        },
        {
            "inputs": [
                {
                    "internalType": "address",
                    "name": "requester",
                    "type": "address"
                },
                {
                    "internalType": "enum Admin.Role",
                    "name": "role",
                    "type": "uint8"
                }
            ],
            "name": "requestApprove",
            "outputs": [],
            "stateMutability": "nonpayable",
            "type": "function"
        }
    ],
    "bytecode": "608060405234801561000f575f80fd5b5061001933610054565b61002233610094565b61002b336100d5565b61003433610116565b61003d33610157565b600580546001600160a01b03191633179055610213565b61005e5f82610198565b6040516001600160a01b038216907f2e0ded4123377a3c2bc9a26f1717655a129e2f20752924d42e730ec89c83dbd0905f90a250565b61009f600182610198565b6040516001600160a01b038216907f9cc959082142e774951fd55b8a182ee2f64f645df132747f6d526ddb421ce131905f90a250565b6100e0600282610198565b6040516001600160a01b038216907f5df5311009aa97175f52fb3639d210c182688926d6ffc79ea14b70b487ba16ff905f90a250565b610121600382610198565b6040516001600160a01b038216907fbc600b1f03d316c479b49930c28e328809316458d5b5dacbb7419df5f6f89647905f90a250565b610162600482610198565b6040516001600160a01b038216907f28b26e7a3d20aedbc5f8f2ebf7da671c0491723a2b78f47a097b0e46dee07142905f90a250565b6001600160a01b0381166101aa575f80fd5b6101b482826101e1565b156101bd575f80fd5b6001600160a01b03165f90815260209190915260409020805460ff19166001179055565b5f6001600160a01b0382166101f4575f80fd5b506001600160a01b03165f908152602091909152604090205460ff1690565b610778806102205f395ff3fe608060405234801561000f575f80fd5b506004361061007a575f3560e01c8063c01688e211610058578063c01688e2146100cb578063d737694f146100de578063e5075d06146100f1578063e7a9f75a14610106575f80fd5b80636ec934da1461007e578063834ff739146100a5578063b9429069146100b8575b5f80fd5b61009161008c36600461069b565b610119565b604051901515815260200160405180910390f35b6100916100b336600461069b565b61012b565b6100916100c636600461069b565b610137565b6100916100d936600461069b565b610142565b6100916100ec36600461069b565b61014e565b6101046100ff3660046106bb565b61015a565b005b6101046101143660046106bb565b610344565b5f6101256003836104c1565b92915050565b5f6101256004836104c1565b5f61012581836104c1565b5f6101256001836104c1565b5f6101256002836104c1565b336001600160a01b038316146101c35760405162461bcd60e51b8152602060048201526024808201527f52657175657374207761736e27742073656e7420627920676976656e206164646044820152637265737360e01b60648201526084015b60405180910390fd5b6001600160a01b0382165f9081526006602052604081205460ff1660058111156101ef576101ef6106f3565b1461022c576001600160a01b0382165f908152600660205260409081902054905163c9785ab760e01b81526101ba9160ff16908390600401610727565b6001600160a01b0382165f9081526006602052604081205460ff166005811115610258576102586106f3565b146102a55760405162461bcd60e51b815260206004820152601c60248201527f52657175657374657220616c726561647920686173206120726f6c650000000060448201526064016101ba565b60058160058111156102b9576102b96106f3565b11156102fb5760405162461bcd60e51b8152602060048201526011602482015270149bdb19481a5cc81b9bdd081d985b1a59607a1b60448201526064016101ba565b80600581111561030d5761030d6106f3565b6040516001600160a01b038416907ffbea2a4bd6d4c6a221168bf2859b13cc6963076734b769320cfb1cd5d7858856905f90a35050565b6005546001600160a01b0316331461037a5760405163065ece9760e51b81526001600160a01b03831660048201526024016101ba565b6005546001600160a01b03163314610390575f80fd5b6001600160a01b0382165f908152600660205260409020805482919060ff191660018360058111156103c4576103c46106f3565b021790555060018160058111156103dd576103dd6106f3565b036103f0576103eb826104f3565b610478565b6002816005811115610404576104046106f3565b03610412576103eb82610533565b6003816005811115610426576104266106f3565b03610434576103eb82610574565b6004816005811115610448576104486106f3565b03610456576103eb826105b5565b600581600581111561046a5761046a6106f3565b0361047857610478826105f6565b80600581111561048a5761048a6106f3565b6040516001600160a01b038416907f416feb16e2239e58f208d72eedead1837e81ee2746a5de4d7fbb7c1f7fcb0c35905f90a35050565b5f6001600160a01b0382166104d4575f80fd5b506001600160a01b03165f908152602091909152604090205460ff1690565b6104fd5f82610637565b6040516001600160a01b038216907f2e0ded4123377a3c2bc9a26f1717655a129e2f20752924d42e730ec89c83dbd0905f90a250565b61053e600182610637565b6040516001600160a01b038216907f9cc959082142e774951fd55b8a182ee2f64f645df132747f6d526ddb421ce131905f90a250565b61057f600282610637565b6040516001600160a01b038216907f5df5311009aa97175f52fb3639d210c182688926d6ffc79ea14b70b487ba16ff905f90a250565b6105c0600382610637565b6040516001600160a01b038216907fbc600b1f03d316c479b49930c28e328809316458d5b5dacbb7419df5f6f89647905f90a250565b610601600482610637565b6040516001600160a01b038216907f28b26e7a3d20aedbc5f8f2ebf7da671c0491723a2b78f47a097b0e46dee07142905f90a250565b6001600160a01b038116610649575f80fd5b61065382826104c1565b1561065c575f80fd5b6001600160a01b03165f90815260209190915260409020805460ff19166001179055565b80356001600160a01b0381168114610696575f80fd5b919050565b5f602082840312156106ab575f80fd5b6106b482610680565b9392505050565b5f80604083850312156106cc575f80fd5b6106d583610680565b91506020830135600681106106e8575f80fd5b809150509250929050565b634e487b7160e01b5f52602160045260245ffd5b6006811061072357634e487b7160e01b5f52602160045260245ffd5b9052565b604081016107358285610707565b6106b4602083018461070756fea26469706673582212205a490ea5cd8f131dd9c4cca3e57cb68a8278741d5431408c52a5ef9ab6602fc164736f6c63430008150033",
    "sourcePath": "c:/Users/ggiul/egg-chain/eth-egg-chain-react/contracts/Admin.sol",
    "compiler": {
        "name": "solc",
        "version": "0.8.21+commit.d9974bed"
    },
    "functionHashes": {
        "isConsumer(address)": "834ff739",
        "isDeliver(address)": "c01688e2",
        "isFarmer(address)": "b9429069",
        "isFoodFactory(address)": "d737694f",
        "isMarket(address)": "6ec934da",
        "requestAdd(address,uint8)": "e5075d06",
        "requestApprove(address,uint8)": "e7a9f75a"
    },
    "gasEstimates": {
        "creation": {
            "codeDepositCost": "382400",
            "executionCost": "infinite",
            "totalCost": "infinite"
        },
        "external": {
            "isConsumer(address)": "2656",
            "isDeliver(address)": "2633",
            "isFarmer(address)": "2678",
            "isFoodFactory(address)": "2655",
            "isMarket(address)": "2634",
            "requestAdd(address,uint8)": "infinite",
            "requestApprove(address,uint8)": "58733"
        }
    }
}