{
    "contractName": "ManageEgg",
    "abi": [
        {
            "inputs": [],
            "stateMutability": "payable",
            "type": "constructor"
        },
        {
            "inputs": [
                {
                    "internalType": "address",
                    "name": "caller",
                    "type": "address"
                }
            ],
            "name": "InvalidCaller",
            "type": "error"
        },
        {
            "inputs": [
                {
                    "internalType": "enum Admin.Role",
                    "name": "current",
                    "type": "uint8"
                },
                {
                    "internalType": "enum Admin.Role",
                    "name": "requested",
                    "type": "uint8"
                }
            ],
            "name": "InvalidRole",
            "type": "error"
        },
        {
            "anonymous": false,
            "inputs": [
                {
                    "indexed": true,
                    "internalType": "address",
                    "name": "account",
                    "type": "address"
                }
            ],
            "name": "ConsumerAdded",
            "type": "event"
        },
        {
            "anonymous": false,
            "inputs": [
                {
                    "indexed": false,
                    "internalType": "uint256",
                    "name": "id",
                    "type": "uint256"
                }
            ],
            "name": "ConsumerBought",
            "type": "event"
        },
        {
            "anonymous": false,
            "inputs": [
                {
                    "indexed": true,
                    "internalType": "address",
                    "name": "account",
                    "type": "address"
                }
            ],
            "name": "DeliverAdded",
            "type": "event"
        },
        {
            "anonymous": false,
            "inputs": [
                {
                    "indexed": false,
                    "internalType": "uint256",
                    "name": "id",
                    "type": "uint256"
                }
            ],
            "name": "Delivered",
            "type": "event"
        },
        {
            "anonymous": false,
            "inputs": [
                {
                    "indexed": false,
                    "internalType": "uint256",
                    "name": "id",
                    "type": "uint256"
                }
            ],
            "name": "FactoryBought",
            "type": "event"
        },
        {
            "anonymous": false,
            "inputs": [
                {
                    "indexed": true,
                    "internalType": "address",
                    "name": "account",
                    "type": "address"
                }
            ],
            "name": "FarmerAdded",
            "type": "event"
        },
        {
            "anonymous": false,
            "inputs": [
                {
                    "indexed": true,
                    "internalType": "address",
                    "name": "account",
                    "type": "address"
                }
            ],
            "name": "FoodFactoryAdded",
            "type": "event"
        },
        {
            "anonymous": false,
            "inputs": [
                {
                    "indexed": false,
                    "internalType": "uint256",
                    "name": "id",
                    "type": "uint256"
                }
            ],
            "name": "FoodFactoryArrived",
            "type": "event"
        },
        {
            "anonymous": false,
            "inputs": [
                {
                    "indexed": true,
                    "internalType": "address",
                    "name": "account",
                    "type": "address"
                }
            ],
            "name": "MarketAdded",
            "type": "event"
        },
        {
            "anonymous": false,
            "inputs": [
                {
                    "indexed": false,
                    "internalType": "uint256",
                    "name": "id",
                    "type": "uint256"
                }
            ],
            "name": "MarketArrived",
            "type": "event"
        },
        {
            "anonymous": false,
            "inputs": [
                {
                    "indexed": false,
                    "internalType": "uint256",
                    "name": "id",
                    "type": "uint256"
                }
            ],
            "name": "MarketForSale",
            "type": "event"
        },
        {
            "anonymous": false,
            "inputs": [
                {
                    "indexed": false,
                    "internalType": "uint256",
                    "name": "id",
                    "type": "uint256"
                }
            ],
            "name": "Packed",
            "type": "event"
        },
        {
            "anonymous": false,
            "inputs": [
                {
                    "indexed": true,
                    "internalType": "address",
                    "name": "requester",
                    "type": "address"
                },
                {
                    "indexed": true,
                    "internalType": "enum Admin.Role",
                    "name": "role",
                    "type": "uint8"
                }
            ],
            "name": "addRequest",
            "type": "event"
        },
        {
            "anonymous": false,
            "inputs": [
                {
                    "indexed": true,
                    "internalType": "address",
                    "name": "requester",
                    "type": "address"
                },
                {
                    "indexed": true,
                    "internalType": "enum Admin.Role",
                    "name": "role",
                    "type": "uint8"
                }
            ],
            "name": "approveRequest",
            "type": "event"
        },
        {
            "anonymous": false,
            "inputs": [
                {
                    "indexed": true,
                    "internalType": "address",
                    "name": "owner",
                    "type": "address"
                },
                {
                    "indexed": true,
                    "internalType": "bytes32",
                    "name": "_hash",
                    "type": "bytes32"
                }
            ],
            "name": "eggPacked",
            "type": "event"
        },
        {
            "anonymous": false,
            "inputs": [
                {
                    "indexed": true,
                    "internalType": "address",
                    "name": "seller",
                    "type": "address"
                },
                {
                    "indexed": true,
                    "internalType": "address",
                    "name": "buyer",
                    "type": "address"
                },
                {
                    "indexed": true,
                    "internalType": "bytes32",
                    "name": "transfer",
                    "type": "bytes32"
                }
            ],
            "name": "eggTransaction",
            "type": "event"
        },
        {
            "anonymous": false,
            "inputs": [
                {
                    "indexed": true,
                    "internalType": "bytes32",
                    "name": "transfer",
                    "type": "bytes32"
                },
                {
                    "indexed": true,
                    "internalType": "bytes32",
                    "name": "_hash",
                    "type": "bytes32"
                },
                {
                    "indexed": true,
                    "internalType": "enum ManageEgg.State",
                    "name": "state",
                    "type": "uint8"
                }
            ],
            "name": "eggTransfer",
            "type": "event"
        },
        {
            "inputs": [
                {
                    "internalType": "uint256",
                    "name": "idEgg",
                    "type": "uint256"
                },
                {
                    "internalType": "uint256",
                    "name": "price",
                    "type": "uint256"
                }
            ],
            "name": "buyConsumer",
            "outputs": [],
            "stateMutability": "payable",
            "type": "function"
        },
        {
            "inputs": [
                {
                    "internalType": "address payable",
                    "name": "seller",
                    "type": "address"
                },
                {
                    "internalType": "address payable",
                    "name": "buyer",
                    "type": "address"
                },
                {
                    "internalType": "bytes32",
                    "name": "transfer",
                    "type": "bytes32"
                },
                {
                    "internalType": "bytes32",
                    "name": "_hash",
                    "type": "bytes32"
                }
            ],
            "name": "buyEgg",
            "outputs": [],
            "stateMutability": "payable",
            "type": "function"
        },
        {
            "inputs": [
                {
                    "internalType": "uint256",
                    "name": "idEgg",
                    "type": "uint256"
                },
                {
                    "internalType": "uint256",
                    "name": "price",
                    "type": "uint256"
                }
            ],
            "name": "buyFoodFactory",
            "outputs": [],
            "stateMutability": "payable",
            "type": "function"
        },
        {
            "inputs": [
                {
                    "internalType": "uint256",
                    "name": "idEgg",
                    "type": "uint256"
                },
                {
                    "internalType": "address",
                    "name": "foodFactoryAddress",
                    "type": "address"
                }
            ],
            "name": "deliverToFoodFactory",
            "outputs": [],
            "stateMutability": "nonpayable",
            "type": "function"
        },
        {
            "inputs": [
                {
                    "internalType": "uint256",
                    "name": "idEgg",
                    "type": "uint256"
                },
                {
                    "internalType": "address",
                    "name": "marketAddr",
                    "type": "address"
                }
            ],
            "name": "deliverToMarket",
            "outputs": [],
            "stateMutability": "nonpayable",
            "type": "function"
        },
        {
            "inputs": [
                {
                    "internalType": "uint256",
                    "name": "idEgg",
                    "type": "uint256"
                },
                {
                    "internalType": "address",
                    "name": "farmerEggAddr",
                    "type": "address"
                },
                {
                    "internalType": "string",
                    "name": "strNote",
                    "type": "string"
                },
                {
                    "internalType": "uint256",
                    "name": "eggPrice",
                    "type": "uint256"
                },
                {
                    "internalType": "uint256",
                    "name": "totEggs",
                    "type": "uint256"
                },
                {
                    "internalType": "string",
                    "name": "_heliaID",
                    "type": "string"
                }
            ],
            "name": "getAndPackEggs",
            "outputs": [],
            "stateMutability": "nonpayable",
            "type": "function"
        },
        {
            "inputs": [
                {
                    "internalType": "address",
                    "name": "account",
                    "type": "address"
                }
            ],
            "name": "isConsumer",
            "outputs": [
                {
                    "internalType": "bool",
                    "name": "",
                    "type": "bool"
                }
            ],
            "stateMutability": "view",
            "type": "function"
        },
        {
            "inputs": [
                {
                    "internalType": "address",
                    "name": "account",
                    "type": "address"
                }
            ],
            "name": "isDeliver",
            "outputs": [
                {
                    "internalType": "bool",
                    "name": "",
                    "type": "bool"
                }
            ],
            "stateMutability": "view",
            "type": "function"
        },
        {
            "inputs": [
                {
                    "internalType": "address",
                    "name": "account",
                    "type": "address"
                }
            ],
            "name": "isFarmer",
            "outputs": [
                {
                    "internalType": "bool",
                    "name": "",
                    "type": "bool"
                }
            ],
            "stateMutability": "view",
            "type": "function"
        },
        {
            "inputs": [
                {
                    "internalType": "address",
                    "name": "account",
                    "type": "address"
                }
            ],
            "name": "isFoodFactory",
            "outputs": [
                {
                    "internalType": "bool",
                    "name": "",
                    "type": "bool"
                }
            ],
            "stateMutability": "view",
            "type": "function"
        },
        {
            "inputs": [
                {
                    "internalType": "address",
                    "name": "account",
                    "type": "address"
                }
            ],
            "name": "isMarket",
            "outputs": [
                {
                    "internalType": "bool",
                    "name": "",
                    "type": "bool"
                }
            ],
            "stateMutability": "view",
            "type": "function"
        },
        {
            "inputs": [
                {
                    "internalType": "uint256",
                    "name": "idEgg",
                    "type": "uint256"
                },
                {
                    "internalType": "address",
                    "name": "marketAddr",
                    "type": "address"
                },
                {
                    "internalType": "uint256",
                    "name": "eggMarketPrice",
                    "type": "uint256"
                },
                {
                    "internalType": "uint256",
                    "name": "totMarketEggs",
                    "type": "uint256"
                }
            ],
            "name": "marketForSale",
            "outputs": [],
            "stateMutability": "nonpayable",
            "type": "function"
        },
        {
            "inputs": [
                {
                    "internalType": "address",
                    "name": "owner",
                    "type": "address"
                },
                {
                    "internalType": "bytes32",
                    "name": "_hash",
                    "type": "bytes32"
                }
            ],
            "name": "packEgg",
            "outputs": [],
            "stateMutability": "nonpayable",
            "type": "function"
        },
        {
            "inputs": [
                {
                    "internalType": "address",
                    "name": "owner",
                    "type": "address"
                },
                {
                    "internalType": "bytes32",
                    "name": "_hash",
                    "type": "bytes32"
                }
            ],
            "name": "packMarketEgg",
            "outputs": [],
            "stateMutability": "nonpayable",
            "type": "function"
        },
        {
            "inputs": [
                {
                    "internalType": "address",
                    "name": "requester",
                    "type": "address"
                },
                {
                    "internalType": "enum Admin.Role",
                    "name": "role",
                    "type": "uint8"
                }
            ],
            "name": "requestAdd",
            "outputs": [],
            "stateMutability": "nonpayable",
            "type": "function"
        },
        {
            "inputs": [
                {
                    "internalType": "address",
                    "name": "requester",
                    "type": "address"
                },
                {
                    "internalType": "enum Admin.Role",
                    "name": "role",
                    "type": "uint8"
                }
            ],
            "name": "requestApprove",
            "outputs": [],
            "stateMutability": "nonpayable",
            "type": "function"
        },
        {
            "inputs": [
                {
                    "internalType": "uint256",
                    "name": "idEgg",
                    "type": "uint256"
                },
                {
                    "internalType": "address",
                    "name": "deliveryAddr",
                    "type": "address"
                }
            ],
            "name": "toDistributor",
            "outputs": [],
            "stateMutability": "nonpayable",
            "type": "function"
        },
        {
            "inputs": [
                {
                    "internalType": "address",
                    "name": "sender",
                    "type": "address"
                },
                {
                    "internalType": "address",
                    "name": "receiver",
                    "type": "address"
                },
                {
                    "internalType": "bytes32",
                    "name": "transfer",
                    "type": "bytes32"
                },
                {
                    "internalType": "bytes32",
                    "name": "_hash",
                    "type": "bytes32"
                }
            ],
            "name": "transferEgg",
            "outputs": [],
            "stateMutability": "nonpayable",
            "type": "function"
        }
    ],
    "bytecode": "60806040526200000f3362000068565b6200001a33620000aa565b6200002533620000ed565b620000303362000130565b6200003b3362000173565b60058054336001600160a01b03199182168117909255600780549091169091179055600160085562000236565b620000745f82620001b6565b6040516001600160a01b038216907f2e0ded4123377a3c2bc9a26f1717655a129e2f20752924d42e730ec89c83dbd0905f90a250565b620000b7600182620001b6565b6040516001600160a01b038216907f9cc959082142e774951fd55b8a182ee2f64f645df132747f6d526ddb421ce131905f90a250565b620000fa600282620001b6565b6040516001600160a01b038216907f5df5311009aa97175f52fb3639d210c182688926d6ffc79ea14b70b487ba16ff905f90a250565b6200013d600382620001b6565b6040516001600160a01b038216907fbc600b1f03d316c479b49930c28e328809316458d5b5dacbb7419df5f6f89647905f90a250565b62000180600482620001b6565b6040516001600160a01b038216907f28b26e7a3d20aedbc5f8f2ebf7da671c0491723a2b78f47a097b0e46dee07142905f90a250565b6001600160a01b038116620001c9575f80fd5b620001d5828262000203565b15620001df575f80fd5b6001600160a01b03165f90815260209190915260409020805460ff19166001179055565b5f6001600160a01b03821662000217575f80fd5b506001600160a01b03165f908152602091909152604090205460ff1690565b612e4780620002445f395ff3fe608060405260043610610105575f3560e01c8063b942906911610092578063dab5902e11610062578063dab5902e1461029a578063e5075d06146102b9578063e7a9f75a146102d8578063e9b799f1146102f7578063ed727a011461030a575f80fd5b8063b94290691461021e578063c01688e21461023d578063cb701a321461025c578063d737694f1461027b575f80fd5b80636ec934da116100d85780636ec934da1461017b57806372b4d791146101ae57806374936c7a146101cd578063834ff739146101e0578063900ee778146101ff575f80fd5b80632dba3ce61461010957806354f525d41461012a57806368667b69146101495780636b92519e14610168575b5f80fd5b348015610114575f80fd5b5061012861012336600461292c565b610329565b005b348015610135575f80fd5b5061012861014436600461295a565b610602565b348015610154575f80fd5b50610128610163366004612984565b610790565b6101286101763660046129c7565b610cfc565b348015610186575f80fd5b5061019a6101953660046129e7565b610fd8565b604051901515815260200160405180910390f35b3480156101b9575f80fd5b506101286101c8366004612a09565b610fea565b6101286101db366004612984565b61127d565b3480156101eb575f80fd5b5061019a6101fa3660046129e7565b611685565b34801561020a575f80fd5b5061012861021936600461292c565b611691565b348015610229575f80fd5b5061019a6102383660046129e7565b611923565b348015610248575f80fd5b5061019a6102573660046129e7565b61192e565b348015610267575f80fd5b5061012861027636600461295a565b61193a565b348015610286575f80fd5b5061019a6102953660046129e7565b611ab9565b3480156102a5575f80fd5b506101286102b4366004612acb565b611ac5565b3480156102c4575f80fd5b506101286102d3366004612b57565b611f4c565b3480156102e3575f80fd5b506101286102f2366004612b57565b612131565b6101286103053660046129c7565b6122ae565b348015610315575f80fd5b5061012861032436600461292c565b6124cd565b8160015f8281526009602052604090206008015460ff16600781111561035157610351612b86565b146103a35760405162461bcd60e51b815260206004820152601d60248201527f456767207374617465206973207374696c6c206e6f74207061636b656400000060448201526064015b60405180910390fd5b6103ac33611923565b6103e75760405162461bcd60e51b815260206004820152600c60248201526b2737ba1030902330b936b2b960a11b604482015260640161039a565b6103f08261192e565b6104625760405162461bcd60e51b815260206004820152603a60248201527f5468652064656c6976657279416464726573732073686f756c6420626520616e60448201527f206578697374696e672064656c69766572792061646472657373000000000000606482015260840161039a565b5f83815260096020526040902060028101546001600160a01b031633146104de5760405162461bcd60e51b815260206004820152602a60248201527f546865206f776e65722073686f756c6420626520746865206661726d6572206f6044820152696620746869732065676760b01b606482015260840161039a565b6001600882015460ff1660078111156104f9576104f9612b86565b146105465760405162461bcd60e51b815260206004820152601a60248201527f4567672068617320746f206265207061636b6564206669727374000000000000604482015260640161039a565b60088101805460ff196001600160a01b03861661010002166001600160a81b03199091161760021790555f848152600a60209081526040808320805460018101825590845292829020815180830190925260148252732a30b5b2b710313c902234b9ba3934b13aba37b960611b928201929092529101906105c79082612c20565b506040518481527ffcc296b8bdd64e3f1d1faadef50cb2d6550f645316330fe57cb1dd7e0612ead0906020015b60405180910390a150505050565b336001600160a01b038316146106795760405162461bcd60e51b815260206004820152603660248201527f546865204d61726b657420416464726573732073686f756c6420626520657175604482015275616c20746f207468652075736572206164647265737360501b606482015260840161039a565b61068282610fd8565b6106ee5760405162461bcd60e51b815260206004820152603760248201527f546865204d61726b657420416464726573732073686f756c6420626520616e206044820152766578697374696e67206d61726b6574206164647265737360481b606482015260840161039a565b60045f828152600b602052604090205460ff16600781111561071257610712612b86565b1461071b575f80fd5b5f818152600b6020526040902080546006919060ff19166001835b02179055505f818152600c602052604080822080546001600160a01b0319166001600160a01b038616908117909155905183927f7d46eeab5a20d07dab08439997b0ebf20ae290804d2cfefe80cbe6b968e6ffbf91a35050565b336001600160a01b038516146107fc5760405162461bcd60e51b815260206004820152602b60248201527f5468652073656e6465722073686f756c6420626520746865207472616e73616360448201526a3a34b7b71031b0b63632b960a91b606482015260840161039a565b5f818152600b602052604081205460ff16600781111561081e5761081e612b86565b036108655760405162461bcd60e51b815260206004820152601760248201527622b3b39034b9903737ba1037b7103a34329031b430b4b760491b604482015260640161039a565b5f818152600c60205260409020546001600160a01b038581169116146108cd5760405162461bcd60e51b815260206004820152601960248201527f53656e6465722073686f756c64206f776e207468652065676700000000000000604482015260640161039a565b5f60015f838152600b602052604090205460ff1660078111156108f2576108f2612b86565b036109a55761090085611923565b61094c5760405162461bcd60e51b815260206004820152601760248201527f53656e6465722073686f756c64206265206661726d6572000000000000000000604482015260640161039a565b6109558461192e565b6109a15760405162461bcd60e51b815260206004820152601c60248201527f52656365697665722073686f756c642062652064656c69766572657200000000604482015260640161039a565b5060025b60025f838152600b602052604090205460ff1660078111156109c9576109c9612b86565b03610ac4576109d78561192e565b610a235760405162461bcd60e51b815260206004820152601b60248201527f53656e6465722073686f756c642062652064656c697665726572210000000000604482015260640161039a565b610a2c84611ab9565b80610a3b5750610a3b84610fd8565b610aa05760405162461bcd60e51b815260206004820152603060248201527f52656365697665722073686f756c642062652065697468657220666f6f64206660448201526f1858dd1bdc9e481bdc881b585c9ad95d60821b606482015260840161039a565b610aa984611ab9565b15610ab2575060055b610abb84610fd8565b15610ac4575060045b60065f838152600b602052604090205460ff166007811115610ae857610ae8612b86565b03610b9b57610af685610fd8565b610b425760405162461bcd60e51b815260206004820152601760248201527f53656e6465722073686f756c64206265206d61726b6574000000000000000000604482015260640161039a565b610b4b84611685565b610b975760405162461bcd60e51b815260206004820152601b60248201527f52656365697665722073686f756c6420626520636f6e73756d65720000000000604482015260640161039a565b5060075b5f816007811115610bae57610bae612b86565b03610c215760405162461bcd60e51b815260206004820152603b60248201527f53656e64657220616e6420526563656976657220726f6c657320617265206e6f60448201527f7420636f6d70617469626c6520666f722061207472616e736665720000000000606482015260840161039a565b5f828152600b60205260409020805482919060ff19166001836007811115610c4b57610c4b612b86565b02179055505f828152600c6020526040902080546001600160a01b0319166001600160a01b038616179055806007811115610c8857610c88612b86565b604051839085907f04521df57245ec6913683ee470130a7835c906787df629472b6c0938b9d223d0905f90a482846001600160a01b0316866001600160a01b03167fd06d49a68520b8452e6694b17539829c97d141dbb6819f03b067fe54bd3bbdb860405160405180910390a45050505050565b610d0533611ab9565b610d465760405162461bcd60e51b81526020600482015260126024820152714e6f74206120466f6f6420466163746f727960701b604482015260640161039a565b8160055f8281526009602052604090206008015460ff166007811115610d6e57610d6e612b86565b14610dd25760405162461bcd60e51b815260206004820152602e60248201527f456767207374617465206973207374696c6c206e6f742061727269766564207460448201526d6f20466f6f6420466163746f727960901b606482015260840161039a565b5f838152600960205260409020600401548390839080821015610e075760405162461bcd60e51b815260040161039a90612cdc565b5f86815260096020526040808220600a810180546001600160a01b031990811633908117909255600183018054909116909117905560088101805460ff19166003179055600281015491518993899390916001600160a01b03909116906108fc85150290859084818181858888f19350505050905080610e995760405162461bcd60e51b815260040161039a90612d1e565b5f8a8152600a6020908152604080832080546001810182559084529282902081518083019092526018825277426f75676874206279206120466f6f6420466163746f727960401b92820192909252910190610ef49082612c20565b506040518a81527f793eece6154a239accd12adde3a8e1e4157470e9fdd8085f47fb2533b383fbc6906020015b60405180910390a150505f8281526009602052604090206004015480821115610fcd575f610f4f8284612d60565b6040519091505f90339083156108fc0290849084818181858888f19350505050905080610fca5760405162461bcd60e51b8152602060048201526024808201527f636865636b416d6f756e7450616964204661696c656420746f2073656e6420456044820152633a3432b960e11b606482015260840161039a565b50505b505050505050505050565b5f610fe4600383612756565b92915050565b610ff333610fd8565b61102e5760405162461bcd60e51b815260206004820152600c60248201526b139bdd08184813585c9ad95d60a21b604482015260640161039a565b8360045f8281526009602052604090206008015460ff16600781111561105657611056612b86565b146110b15760405162461bcd60e51b815260206004820152602560248201527f456767207374617465206973207374696c6c206e6f74206d61726b65742061726044820152641c9a5d995960da1b606482015260840161039a565b336001600160a01b0385161461112f5760405162461bcd60e51b815260206004820152603760248201527f546865206f776e657220616464726573732073686f756c64206265206571756160448201527f6c20746f20746865206d61726b65742061646472657373000000000000000000606482015260840161039a565b61113884610fd8565b6111a45760405162461bcd60e51b815260206004820152603760248201527f546865206d61726b657420416464726573732073686f756c6420626520616e206044820152766578697374696e67206d61726b6574206164647265737360481b606482015260840161039a565b5f85815260096020818152604080842092830180546001600160a01b0319166001600160a01b038a16179055600883018054600660ff199091168117909155830186905560058301879055600a8252808420805460018101825590855293829020815180830190925260168252754d61726b65742069732073656c6c696e67206567677360501b92820192909252919201906112409082612c20565b506040518681527f6f005eb87a57c7a954cac3dd1081d389b1995427c6ee0db435ef56cc44bc8d68906020015b60405180910390a1505050505050565b336001600160a01b038416146112e85760405162461bcd60e51b815260206004820152602a60248201527f5468652062757965722073686f756c6420626520746865207472616e7361637460448201526934b7b71031b0b63632b960b11b606482015260840161039a565b5f818152600b602052604081205460ff16600781111561130a5761130a612b86565b036113515760405162461bcd60e51b815260206004820152601760248201527622b3b39034b9903737ba1037b7103a34329031b430b4b760491b604482015260640161039a565b5f60065f838152600b602052604090205460ff16600781111561137657611376612b86565b03611491575f828152600c60205260409020546001600160a01b038681169116146113e35760405162461bcd60e51b815260206004820152601960248201527f53656c6c65722073686f756c64206f776e207468652065676700000000000000604482015260640161039a565b6113ec85610fd8565b6114385760405162461bcd60e51b815260206004820152601760248201527f53656c6c65722073686f756c64206265206d61726b6574000000000000000000604482015260640161039a565b61144184611685565b61148d5760405162461bcd60e51b815260206004820152601860248201527f42757965722073686f756c6420626520636f6e73756d65720000000000000000604482015260640161039a565b5060075b60055f838152600b602052604090205460ff1660078111156114b5576114b5612b86565b036115ff576114c385611923565b61150f5760405162461bcd60e51b815260206004820152601760248201527f73656c6c65722073686f756c64206265204661726d6572000000000000000000604482015260640161039a565b61151884611ab9565b6115645760405162461bcd60e51b815260206004820152601c60248201527f62757965722073686f756c6420626520466f6f6420466163746f727900000000604482015260640161039a565b836001600160a01b0316313411156115b55760405162461bcd60e51b8152602060048201526014602482015273496e73756666696369656e742062616c616e636560601b604482015260640161039a565b506040516003905f906001600160a01b038716903480156108fc029184818181858888f193505050509050806115fd5760405162461bcd60e51b815260040161039a90612d1e565b505b5f81600781111561161257611612612b86565b03610c215760405162461bcd60e51b815260206004820152603860248201527f53656c6c657220616e6420427579657220726f6c657320617265206e6f74206360448201527f6f6d70617469626c6520666f722061207472616e736665720000000000000000606482015260840161039a565b5f610fe4600483612756565b61169a3361192e565b6116d65760405162461bcd60e51b815260206004820152600d60248201526c2737ba1030902232b634bb32b960991b604482015260640161039a565b8160025f8281526009602052604090206008015460ff1660078111156116fe576116fe612b86565b1461174b5760405162461bcd60e51b815260206004820181905260248201527f456767207374617465206973207374696c6c206e6f742064656c697665726564604482015260640161039a565b61175482611ab9565b6117bf5760405162461bcd60e51b815260206004820152603660248201527f54686520666f6f6420466163746f727920416464726573732073686f756c6420604482015275626520616e206578697374696e67206164647265737360501b606482015260840161039a565b5f838152600960205260409020600881015461010090046001600160a01b031633146117fd5760405162461bcd60e51b815260040161039a90612d73565b6002600882015460ff16600781111561181857611818612b86565b146118655760405162461bcd60e51b815260206004820152601d60248201527f4567672068617320746f2062652064656c697665726564206669727374000000604482015260640161039a565b600a81810180546001600160a01b0386166001600160a01b031990911617905560088201805460ff191660051790555f858152602091825260408082208054600181018255908352918390208151808301909252601982527f44656c69766572656420746f20466f6f6420466163746f727900000000000000938201939093529101906118f29082612c20565b506040518481527fb9d5c46058b6001b1cd3c5ade446c44992e331a9bd06268695eb7717b066b414906020016105f4565b5f610fe48183612756565b5f610fe4600183612756565b336001600160a01b038316146119b15760405162461bcd60e51b815260206004820152603660248201527f546865204661726d657220416464726573732073686f756c6420626520657175604482015275616c20746f207468652075736572206164647265737360501b606482015260840161039a565b6119ba82611923565b611a2c5760405162461bcd60e51b815260206004820152603760248201527f546865204661726d657220416464726573732073686f756c6420626520616e2060448201527f6578697374696e67206661726d65722061646472657373000000000000000000606482015260840161039a565b5f818152600b602052604081205460ff166007811115611a4e57611a4e612b86565b14611a9b5760405162461bcd60e51b815260206004820152601760248201527f5468652065676720616c72656164792065786973747321000000000000000000604482015260640161039a565b5f818152600b6020526040902080546001919060ff19168280610736565b5f610fe4600283612756565b611ace33611923565b611b095760405162461bcd60e51b815260206004820152600c60248201526b2737ba1030902330b936b2b960a11b604482015260640161039a565b5f868152600960205260409020600101546001600160a01b031615611b705760405162461bcd60e51b815260206004820152601f60248201527f546869732065676750726f6475637420616c7265616479206578697374732100604482015260640161039a565b5f8311611bd95760405162461bcd60e51b815260206004820152603160248201527f45676750726963652073686f756c64206265206120706f736974697665206e7560448201527006d626572206d616a6f72207468616e203607c1b606482015260840161039a565b5f8211611c4e5760405162461bcd60e51b815260206004820152603b60248201527f546865206e756d626572206f6620656767732073686f756c642062652061207060448201527f6f736974697665206e756d626572206d616a6f72207468616e20300000000000606482015260840161039a565b336001600160a01b03861614611ccc5760405162461bcd60e51b815260206004820152603760248201527f546865206f776e657220616464726573732073686f756c64206265206571756160448201527f6c20746f20746865206661726d65722061646472657373000000000000000000606482015260840161039a565b611cd585611923565b611d405760405162461bcd60e51b815260206004820152603660248201527f546865206661726d6572416464726573732073686f756c6420626520616e206560448201527578697374696e67206661726d6572206164647265737360501b606482015260840161039a565b604051806101c00160405280878152602001336001600160a01b03168152602001866001600160a01b031681526020018581526020018481526020015f81526020018381526020015f815260200160016007811115611da157611da1612b86565b81525f6020808301829052604080840183905260608085018490526080850184905260a09094018690528a8352600982529182902084518155908401516001820180546001600160a01b03199081166001600160a01b039384161790915592850151600283018054909416911617909155908201516003820190611e259082612c20565b506080820151816004015560a0820151816005015560c0820151816006015560e08201518160070155610100820151816008015f6101000a81548160ff02191690836007811115611e7857611e78612b86565b02179055506101208201516008820180546001600160a01b0392831661010002610100600160a81b03199091161790556101408301516009830180549183166001600160a01b0319928316179055610160840151600a84018054918416918316919091179055610180840151600b840180549190931691161790556101a0820151600c820190611f089082612c20565b5050600854611f1991506001612dc3565b6008556040518681527f9b3b66e2380b690bae22c73ef1428fb0c91e72fe14a4b6defa13035214187aff9060200161126d565b336001600160a01b03831614611fb05760405162461bcd60e51b8152602060048201526024808201527f52657175657374207761736e27742073656e7420627920676976656e206164646044820152637265737360e01b606482015260840161039a565b6001600160a01b0382165f9081526006602052604081205460ff166005811115611fdc57611fdc612b86565b14612019576001600160a01b0382165f908152600660205260409081902054905163c9785ab760e01b815261039a9160ff16908390600401612df6565b6001600160a01b0382165f9081526006602052604081205460ff16600581111561204557612045612b86565b146120925760405162461bcd60e51b815260206004820152601c60248201527f52657175657374657220616c726561647920686173206120726f6c6500000000604482015260640161039a565b60058160058111156120a6576120a6612b86565b11156120e85760405162461bcd60e51b8152602060048201526011602482015270149bdb19481a5cc81b9bdd081d985b1a59607a1b604482015260640161039a565b8060058111156120fa576120fa612b86565b6040516001600160a01b038416907ffbea2a4bd6d4c6a221168bf2859b13cc6963076734b769320cfb1cd5d7858856905f90a35050565b6005546001600160a01b031633146121675760405163065ece9760e51b81526001600160a01b038316600482015260240161039a565b6005546001600160a01b0316331461217d575f80fd5b6001600160a01b0382165f908152600660205260409020805482919060ff191660018360058111156121b1576121b1612b86565b021790555060018160058111156121ca576121ca612b86565b036121dd576121d882612788565b612265565b60028160058111156121f1576121f1612b86565b036121ff576121d8826127c8565b600381600581111561221357612213612b86565b03612221576121d882612809565b600481600581111561223557612235612b86565b03612243576121d88261284a565b600581600581111561225757612257612b86565b03612265576122658261288b565b80600581111561227757612277612b86565b6040516001600160a01b038416907f416feb16e2239e58f208d72eedead1837e81ee2746a5de4d7fbb7c1f7fcb0c35905f90a35050565b6122b733611685565b6122f45760405162461bcd60e51b815260206004820152600e60248201526d2737ba10309021b7b739bab6b2b960911b604482015260640161039a565b8160065f8281526009602052604090206008015460ff16600781111561231c5761231c612b86565b146123785760405162461bcd60e51b815260206004820152602660248201527f456767207374617465206973207374696c6c206e6f74204d61726b657420466f604482015265722053616c6560d01b606482015260840161039a565b5f8381526009602052604090206004015483908390808210156123ad5760405162461bcd60e51b815260040161039a90612cdc565b5f868152600960208190526040808320600b810180546001600160a01b031990811633908117909255600183018054909116909117905560088101805460ff19166007179055918201549051899389939290916001600160a01b03909116906108fc85150290859084818181858888f193505050509050806124415760405162461bcd60e51b815260040161039a90612d1e565b5f8a8152600a6020908152604080832080546001810182559084529282902081518083019092526018825277426f75676874206279206120466f6f6420466163746f727960401b9282019290925291019061249c9082612c20565b506040518a81527f3586d5aff450a5aacadfc186d3864a67ea6e93b285e38cb63936f1f82e7cd02790602001610f21565b6124d63361192e565b6125125760405162461bcd60e51b815260206004820152600d60248201526c2737ba1030902232b634bb32b960991b604482015260640161039a565b8160025f8281526009602052604090206008015460ff16600781111561253a5761253a612b86565b146125875760405162461bcd60e51b815260206004820181905260248201527f456767207374617465206973207374696c6c206e6f742064656c697665726564604482015260640161039a565b61259082610fd8565b6125fb5760405162461bcd60e51b815260206004820152603660248201527f546865206d61726b6574416464726573732073686f756c6420626520616e206560448201527578697374696e67206d61726b6574206164647265737360501b606482015260840161039a565b5f838152600960205260409020600881015461010090046001600160a01b031633146126395760405162461bcd60e51b815260040161039a90612d73565b6002600882015460ff16600781111561265457612654612b86565b146126a15760405162461bcd60e51b815260206004820152601d60248201527f4567672068617320746f2062652064656c697665726564206669727374000000604482015260640161039a565b6009810180546001600160a01b0385166001600160a01b031990911617905560088101805460ff191660041790555f848152600a602090815260408083208054600181018255908452928290208151808301909252601382527211195b1a5d995c9959081d1bc813585c9ad95d606a1b928201929092529101906127259082612c20565b506040518481527f441c89d8f3121856ebd5fbe5ceff465b1b1c3615dd24fc88da8d912b0bb9ee21906020016105f4565b5f6001600160a01b038216612769575f80fd5b506001600160a01b03165f908152602091909152604090205460ff1690565b6127925f826128cc565b6040516001600160a01b038216907f2e0ded4123377a3c2bc9a26f1717655a129e2f20752924d42e730ec89c83dbd0905f90a250565b6127d36001826128cc565b6040516001600160a01b038216907f9cc959082142e774951fd55b8a182ee2f64f645df132747f6d526ddb421ce131905f90a250565b6128146002826128cc565b6040516001600160a01b038216907f5df5311009aa97175f52fb3639d210c182688926d6ffc79ea14b70b487ba16ff905f90a250565b6128556003826128cc565b6040516001600160a01b038216907fbc600b1f03d316c479b49930c28e328809316458d5b5dacbb7419df5f6f89647905f90a250565b6128966004826128cc565b6040516001600160a01b038216907f28b26e7a3d20aedbc5f8f2ebf7da671c0491723a2b78f47a097b0e46dee07142905f90a250565b6001600160a01b0381166128de575f80fd5b6128e88282612756565b156128f1575f80fd5b6001600160a01b03165f90815260209190915260409020805460ff19166001179055565b6001600160a01b0381168114612929575f80fd5b50565b5f806040838503121561293d575f80fd5b82359150602083013561294f81612915565b809150509250929050565b5f806040838503121561296b575f80fd5b823561297681612915565b946020939093013593505050565b5f805f8060808587031215612997575f80fd5b84356129a281612915565b935060208501356129b281612915565b93969395505050506040820135916060013590565b5f80604083850312156129d8575f80fd5b50508035926020909101359150565b5f602082840312156129f7575f80fd5b8135612a0281612915565b9392505050565b5f805f8060808587031215612a1c575f80fd5b8435935060208501356129b281612915565b634e487b7160e01b5f52604160045260245ffd5b5f82601f830112612a51575f80fd5b813567ffffffffffffffff80821115612a6c57612a6c612a2e565b604051601f8301601f19908116603f01168101908282118183101715612a9457612a94612a2e565b81604052838152866020858801011115612aac575f80fd5b836020870160208301375f602085830101528094505050505092915050565b5f805f805f8060c08789031215612ae0575f80fd5b863595506020870135612af281612915565b9450604087013567ffffffffffffffff80821115612b0e575f80fd5b612b1a8a838b01612a42565b9550606089013594506080890135935060a0890135915080821115612b3d575f80fd5b50612b4a89828a01612a42565b9150509295509295509295565b5f8060408385031215612b68575f80fd5b8235612b7381612915565b915060208301356006811061294f575f80fd5b634e487b7160e01b5f52602160045260245ffd5b600181811c90821680612bae57607f821691505b602082108103612bcc57634e487b7160e01b5f52602260045260245ffd5b50919050565b601f821115612c1b575f81815260208120601f850160051c81016020861015612bf85750805b601f850160051c820191505b81811015612c1757828155600101612c04565b5050505b505050565b815167ffffffffffffffff811115612c3a57612c3a612a2e565b612c4e81612c488454612b9a565b84612bd2565b602080601f831160018114612c81575f8415612c6a5750858301515b5f19600386901b1c1916600185901b178555612c17565b5f85815260208120601f198616915b82811015612caf57888601518255948401946001909101908401612c90565b5085821015612ccc57878501515f19600388901b60f8161c191681555b5050505050600190811b01905550565b60208082526022908201527f496e73756666696369656e7420616d6f756e7420666f72206567672070726963604082015261652160f01b606082015260800190565b6020808252601490820152732330b4b632b2103a379039b2b7321022ba3432b960611b604082015260600190565b634e487b7160e01b5f52601160045260245ffd5b81810381811115610fe457610fe4612d4c565b60208082526030908201527f546865206f776e65722073686f756c642062652074686520646973747269627560408201526f746f7220666f7220746869732065676760801b606082015260800190565b80820180821115610fe457610fe4612d4c565b60068110612df257634e487b7160e01b5f52602160045260245ffd5b9052565b60408101612e048285612dd6565b612a026020830184612dd656fea26469706673582212202a4413f64cd46a2cf63cbcfa9e2c4dd4ccba50dc610d4f3285c18fbd0fb044f664736f6c63430008150033",
    "sourcePath": "c:/Users/ggiul/egg-chain/eth-egg-chain-react/contracts/ManageEgg.sol",
    "compiler": {
        "name": "solc",
        "version": "0.8.21+commit.d9974bed"
    },
    "functionHashes": {
        "buyConsumer(uint256,uint256)": "e9b799f1",
        "buyEgg(address,address,bytes32,bytes32)": "74936c7a",
        "buyFoodFactory(uint256,uint256)": "6b92519e",
        "deliverToFoodFactory(uint256,address)": "900ee778",
        "deliverToMarket(uint256,address)": "ed727a01",
        "getAndPackEggs(uint256,address,string,uint256,uint256,string)": "dab5902e",
        "isConsumer(address)": "834ff739",
        "isDeliver(address)": "c01688e2",
        "isFarmer(address)": "b9429069",
        "isFoodFactory(address)": "d737694f",
        "isMarket(address)": "6ec934da",
        "marketForSale(uint256,address,uint256,uint256)": "72b4d791",
        "packEgg(address,bytes32)": "cb701a32",
        "packMarketEgg(address,bytes32)": "54f525d4",
        "requestAdd(address,uint8)": "e5075d06",
        "requestApprove(address,uint8)": "e7a9f75a",
        "toDistributor(uint256,address)": "2dba3ce6",
        "transferEgg(address,address,bytes32,bytes32)": "68667b69"
    },
    "gasEstimates": {
        "creation": {
            "codeDepositCost": "2369400",
            "executionCost": "infinite",
            "totalCost": "infinite"
        },
        "external": {
            "buyConsumer(uint256,uint256)": "infinite",
            "buyEgg(address,address,bytes32,bytes32)": "infinite",
            "buyFoodFactory(uint256,uint256)": "infinite",
            "deliverToFoodFactory(uint256,address)": "infinite",
            "deliverToMarket(uint256,address)": "infinite",
            "getAndPackEggs(uint256,address,string,uint256,uint256,string)": "infinite",
            "isConsumer(address)": "2716",
            "isDeliver(address)": "2672",
            "isFarmer(address)": "2650",
            "isFoodFactory(address)": "2716",
            "isMarket(address)": "2650",
            "marketForSale(uint256,address,uint256,uint256)": "infinite",
            "packEgg(address,bytes32)": "55135",
            "packMarketEgg(address,bytes32)": "55106",
            "requestAdd(address,uint8)": "infinite",
            "requestApprove(address,uint8)": "58727",
            "toDistributor(uint256,address)": "infinite",
            "transferEgg(address,address,bytes32,bytes32)": "infinite"
        }
    }
}