{
  "contractName": "Farmer",
  "abi": [
    {
      "inputs": [],
      "stateMutability": "nonpayable",
      "type": "constructor"
    },
    {
      "anonymous": false,
      "inputs": [
        {
          "indexed": true,
          "internalType": "address",
          "name": "account",
          "type": "address"
        }
      ],
      "name": "FarmerAdded",
      "type": "event"
    },
    {
      "inputs": [
        {
          "internalType": "address",
          "name": "account",
          "type": "address"
        }
      ],
      "name": "isFarmer",
      "outputs": [
        {
          "internalType": "bool",
          "name": "",
          "type": "bool"
        }
      ],
      "stateMutability": "view",
      "type": "function"
    },
    {
      "inputs": [
        {
          "internalType": "address",
          "name": "account",
          "type": "address"
        }
      ],
      "name": "addFarmer",
      "outputs": [],
      "stateMutability": "nonpayable",
      "type": "function"
    }
  ],
  "bytecode": "0x608060405234801561000f575f80fd5b5061001f3361002460201b60201c565b6101b2565b610037815f61007d60201b90919060201c565b8073ffffffffffffffffffffffffffffffffffffffff167f2e0ded4123377a3c2bc9a26f1717655a129e2f20752924d42e730ec89c83dbd060405160405180910390a250565b5f73ffffffffffffffffffffffffffffffffffffffff168173ffffffffffffffffffffffffffffffffffffffff16036100b4575f80fd5b6100c4828261012760201b60201c565b156100cd575f80fd5b6001825f015f8373ffffffffffffffffffffffffffffffffffffffff1673ffffffffffffffffffffffffffffffffffffffff1681526020019081526020015f205f6101000a81548160ff0219169083151502179055505050565b5f8073ffffffffffffffffffffffffffffffffffffffff168273ffffffffffffffffffffffffffffffffffffffff160361015f575f80fd5b825f015f8373ffffffffffffffffffffffffffffffffffffffff1673ffffffffffffffffffffffffffffffffffffffff1681526020019081526020015f205f9054906101000a900460ff16905092915050565b610325806101bf5f395ff3fe608060405234801561000f575f80fd5b5060043610610034575f3560e01c806380c3f96d14610038578063b942906914610054575b5f80fd5b610052600480360381019061004d9190610291565b610084565b005b61006e60048036038101906100699190610291565b610090565b60405161007b91906102d6565b60405180910390f35b61008d816100ab565b50565b5f6100a4825f61010490919063ffffffff16565b9050919050565b6100be815f61018f90919063ffffffff16565b8073ffffffffffffffffffffffffffffffffffffffff167f2e0ded4123377a3c2bc9a26f1717655a129e2f20752924d42e730ec89c83dbd060405160405180910390a250565b5f8073ffffffffffffffffffffffffffffffffffffffff168273ffffffffffffffffffffffffffffffffffffffff160361013c575f80fd5b825f015f8373ffffffffffffffffffffffffffffffffffffffff1673ffffffffffffffffffffffffffffffffffffffff1681526020019081526020015f205f9054906101000a900460ff16905092915050565b5f73ffffffffffffffffffffffffffffffffffffffff168173ffffffffffffffffffffffffffffffffffffffff16036101c6575f80fd5b6101d08282610104565b156101d9575f80fd5b6001825f015f8373ffffffffffffffffffffffffffffffffffffffff1673ffffffffffffffffffffffffffffffffffffffff1681526020019081526020015f205f6101000a81548160ff0219169083151502179055505050565b5f80fd5b5f73ffffffffffffffffffffffffffffffffffffffff82169050919050565b5f61026082610237565b9050919050565b61027081610256565b811461027a575f80fd5b50565b5f8135905061028b81610267565b92915050565b5f602082840312156102a6576102a5610233565b5b5f6102b38482850161027d565b91505092915050565b5f8115159050919050565b6102d0816102bc565b82525050565b5f6020820190506102e95f8301846102c7565b9291505056fea26469706673582212204087bdfe81f7ea30e52b61f5ae7a990301f948dc3fd14cf0c783e8325e1e5fcd64736f6c63430008150033",
  "immutableReferences": {},
  "source": "// SPDX-License-Identifier: TFT-1.0.0\r\n\r\npragma solidity ^0.8.21;\r\n\r\n\r\nimport './Roles.sol';\r\n\r\ncontract Farmer{\r\n\r\nusing Roles for Roles.Role;\r\n\r\nevent FarmerAdded (address indexed account);\r\n\r\nRoles.Role private Farmer;\r\n\r\nconstructor() {\r\n        _addFarmer(msg.sender);\r\n}\r\n\r\n\r\nmodifier onlyFarmer(){\r\n        require(isFarmer(msg.sender), 'Not a Farmer');\r\n        _;\r\n}\r\n\r\nfunction isFarmer(address account) public view returns(bool){\r\n        return Farmer.has(account);\r\n}\r\n\r\nfunction addFarmer(address account) public{\r\n        _addFarmer(account);\r\n}\r\n\r\n\r\nfunction _addFarmer(address account) internal{\r\n    Farmer.add(account);\r\n    emit FarmerAdded(account);\r\n}\r\n}",
  "sourcePath": "C:\\Users\\ggiul\\egg-chain\\eth-egg-chain-react\\contracts\\Farmer.sol",
  "compiler": {
    "name": "solc",
    "version": "0.8.21+commit.d9974bed.Emscripten.clang"
  },
  "schemaVersion": "3.4.16",
  "updatedAt": "2023-12-04T23:49:45.412Z",
  "devdoc": {
    "kind": "dev",
    "methods": {},
    "version": 1
  },
  "userdoc": {
    "kind": "user",
    "methods": {},
    "version": 1
  }
}