{
  "contractName": "FoodFactory",
  "abi": [
    {
      "inputs": [],
      "stateMutability": "nonpayable",
      "type": "constructor"
    },
    {
      "anonymous": false,
      "inputs": [
        {
          "indexed": true,
          "internalType": "address",
          "name": "account",
          "type": "address"
        }
      ],
      "name": "FoodFactoryAdded",
      "type": "event"
    },
    {
      "inputs": [
        {
          "internalType": "address",
          "name": "account",
          "type": "address"
        }
      ],
      "name": "addFoodFactory",
      "outputs": [],
      "stateMutability": "nonpayable",
      "type": "function"
    }
  ],
  "bytecode": "0x608060405234801561000f575f80fd5b5061001f3361002460201b60201c565b6101b2565b610037815f61007d60201b90919060201c565b8073ffffffffffffffffffffffffffffffffffffffff167f5df5311009aa97175f52fb3639d210c182688926d6ffc79ea14b70b487ba16ff60405160405180910390a250565b5f73ffffffffffffffffffffffffffffffffffffffff168173ffffffffffffffffffffffffffffffffffffffff16036100b4575f80fd5b6100c4828261012760201b60201c565b156100cd575f80fd5b6001825f015f8373ffffffffffffffffffffffffffffffffffffffff1673ffffffffffffffffffffffffffffffffffffffff1681526020019081526020015f205f6101000a81548160ff0219169083151502179055505050565b5f8073ffffffffffffffffffffffffffffffffffffffff168273ffffffffffffffffffffffffffffffffffffffff160361015f575f80fd5b825f015f8373ffffffffffffffffffffffffffffffffffffffff1673ffffffffffffffffffffffffffffffffffffffff1681526020019081526020015f205f9054906101000a900460ff16905092915050565b61029c806101bf5f395ff3fe608060405234801561000f575f80fd5b5060043610610029575f3560e01c80630bacfb731461002d575b5f80fd5b6100476004803603810190610042919061023b565b610049565b005b61005281610055565b50565b610068815f6100ae90919063ffffffff16565b8073ffffffffffffffffffffffffffffffffffffffff167f5df5311009aa97175f52fb3639d210c182688926d6ffc79ea14b70b487ba16ff60405160405180910390a250565b5f73ffffffffffffffffffffffffffffffffffffffff168173ffffffffffffffffffffffffffffffffffffffff16036100e5575f80fd5b6100ef8282610152565b156100f8575f80fd5b6001825f015f8373ffffffffffffffffffffffffffffffffffffffff1673ffffffffffffffffffffffffffffffffffffffff1681526020019081526020015f205f6101000a81548160ff0219169083151502179055505050565b5f8073ffffffffffffffffffffffffffffffffffffffff168273ffffffffffffffffffffffffffffffffffffffff160361018a575f80fd5b825f015f8373ffffffffffffffffffffffffffffffffffffffff1673ffffffffffffffffffffffffffffffffffffffff1681526020019081526020015f205f9054906101000a900460ff16905092915050565b5f80fd5b5f73ffffffffffffffffffffffffffffffffffffffff82169050919050565b5f61020a826101e1565b9050919050565b61021a81610200565b8114610224575f80fd5b50565b5f8135905061023581610211565b92915050565b5f602082840312156102505761024f6101dd565b5b5f61025d84828501610227565b9150509291505056fea2646970667358221220dd03253d66a60b02fbf25f65d4a4eb3e95585fd2f1c830eaee46148f24484ddf64736f6c63430008150033",
  "immutableReferences": {},
  "source": "// SPDX-License-Identifier: TFT-1.0.0\r\n\r\npragma solidity ^0.8.21;\r\n\r\n\r\nimport './Roles.sol';\r\n\r\ncontract FoodFactory {\r\n\r\nusing Roles for Roles.Role;\r\n\r\nevent FoodFactoryAdded (address indexed account);\r\n\r\nRoles.Role private FoodFactory;\r\n\r\nconstructor() {\r\n        _addFoodFactory(msg.sender);\r\n}\r\n\r\nfunction addFoodFactory(address account) public{\r\n        _addFoodFactory(account);\r\n}\r\n\r\n\r\nfunction _addFoodFactory(address account) internal{\r\n    FoodFactory.add(account);\r\n    emit FoodFactoryAdded(account);\r\n}\r\n}",
  "sourcePath": "C:\\Users\\ggiul\\egg-chain\\eth-egg-chain-react\\contracts\\FoodFactory.sol",
  "compiler": {
    "name": "solc",
    "version": "0.8.21+commit.d9974bed.Emscripten.clang"
  },
  "schemaVersion": "3.4.16",
  "updatedAt": "2023-12-06T18:11:28.005Z",
  "devdoc": {
    "kind": "dev",
    "methods": {},
    "version": 1
  },
  "userdoc": {
    "kind": "user",
    "methods": {},
    "version": 1
  }
}