{
  "contractName": "Gateway",
  "abi": [
    {
      "inputs": [],
      "stateMutability": "payable",
      "type": "constructor",
      "payable": true
    },
    {
      "anonymous": false,
      "inputs": [
        {
          "indexed": true,
          "internalType": "address",
          "name": "account",
          "type": "address"
        }
      ],
      "name": "ConsumerAdded",
      "type": "event"
    },
    {
      "anonymous": false,
      "inputs": [
        {
          "indexed": false,
          "internalType": "uint256",
          "name": "id",
          "type": "uint256"
        }
      ],
      "name": "ConsumerBought",
      "type": "event"
    },
    {
      "anonymous": false,
      "inputs": [
        {
          "indexed": true,
          "internalType": "address",
          "name": "account",
          "type": "address"
        }
      ],
      "name": "DeliverAdded",
      "type": "event"
    },
    {
      "anonymous": false,
      "inputs": [
        {
          "indexed": false,
          "internalType": "uint256",
          "name": "id",
          "type": "uint256"
        }
      ],
      "name": "Delivered",
      "type": "event"
    },
    {
      "anonymous": false,
      "inputs": [
        {
          "indexed": false,
          "internalType": "uint256",
          "name": "id",
          "type": "uint256"
        }
      ],
      "name": "FactoryBought",
      "type": "event"
    },
    {
      "anonymous": false,
      "inputs": [
        {
          "indexed": true,
          "internalType": "address",
          "name": "account",
          "type": "address"
        }
      ],
      "name": "FarmerAdded",
      "type": "event"
    },
    {
      "anonymous": false,
      "inputs": [
        {
          "indexed": true,
          "internalType": "address",
          "name": "account",
          "type": "address"
        }
      ],
      "name": "FoodFactoryAdded",
      "type": "event"
    },
    {
      "anonymous": false,
      "inputs": [
        {
          "indexed": true,
          "internalType": "address",
          "name": "account",
          "type": "address"
        }
      ],
      "name": "MarketAdded",
      "type": "event"
    },
    {
      "anonymous": false,
      "inputs": [
        {
          "indexed": false,
          "internalType": "uint256",
          "name": "id",
          "type": "uint256"
        }
      ],
      "name": "MarketArrived",
      "type": "event"
    },
    {
      "anonymous": false,
      "inputs": [
        {
          "indexed": false,
          "internalType": "uint256",
          "name": "id",
          "type": "uint256"
        }
      ],
      "name": "Packed",
      "type": "event"
    },
    {
      "inputs": [
        {
          "internalType": "address",
          "name": "account",
          "type": "address"
        }
      ],
      "name": "addConsumer",
      "outputs": [],
      "stateMutability": "nonpayable",
      "type": "function"
    },
    {
      "inputs": [
        {
          "internalType": "address",
          "name": "account",
          "type": "address"
        }
      ],
      "name": "addDeliver",
      "outputs": [],
      "stateMutability": "nonpayable",
      "type": "function"
    },
    {
      "inputs": [
        {
          "internalType": "address",
          "name": "account",
          "type": "address"
        }
      ],
      "name": "addFarmer",
      "outputs": [],
      "stateMutability": "nonpayable",
      "type": "function"
    },
    {
      "inputs": [
        {
          "internalType": "address",
          "name": "account",
          "type": "address"
        }
      ],
      "name": "addFoodFactory",
      "outputs": [],
      "stateMutability": "nonpayable",
      "type": "function"
    },
    {
      "inputs": [
        {
          "internalType": "address",
          "name": "account",
          "type": "address"
        }
      ],
      "name": "addMarket",
      "outputs": [],
      "stateMutability": "nonpayable",
      "type": "function"
    },
    {
      "inputs": [
        {
          "internalType": "uint256",
          "name": "idEgg",
          "type": "uint256"
        }
      ],
      "name": "fetchData",
      "outputs": [
        {
          "internalType": "uint256",
          "name": "id",
          "type": "uint256"
        },
        {
          "internalType": "address",
          "name": "ownerID",
          "type": "address"
        },
        {
          "internalType": "address",
          "name": "farmerAddr",
          "type": "address"
        },
        {
          "internalType": "string",
          "name": "farm",
          "type": "string"
        },
        {
          "internalType": "string",
          "name": "note",
          "type": "string"
        },
        {
          "internalType": "uint256",
          "name": "price",
          "type": "uint256"
        },
        {
          "internalType": "uint256",
          "name": "totalEggsInPackage",
          "type": "uint256"
        },
        {
          "internalType": "enum ManageEgg.State",
          "name": "eggState",
          "type": "uint8"
        },
        {
          "internalType": "address",
          "name": "deliveryAddr",
          "type": "address"
        },
        {
          "internalType": "address",
          "name": "marketAddr",
          "type": "address"
        },
        {
          "internalType": "address",
          "name": "foodFactoryAddr",
          "type": "address"
        },
        {
          "internalType": "address",
          "name": "consumerAddr",
          "type": "address"
        }
      ],
      "stateMutability": "view",
      "type": "function",
      "constant": true
    },
    {
      "inputs": [
        {
          "internalType": "uint256",
          "name": "idEgg",
          "type": "uint256"
        },
        {
          "internalType": "address",
          "name": "farmerEggAddr",
          "type": "address"
        },
        {
          "internalType": "string",
          "name": "farmFrom",
          "type": "string"
        },
        {
          "internalType": "uint256",
          "name": "totEggs",
          "type": "uint256"
        }
      ],
      "name": "getAndPackEggs",
      "outputs": [],
      "stateMutability": "nonpayable",
      "type": "function"
    },
    {
      "inputs": [
        {
          "internalType": "address",
          "name": "account",
          "type": "address"
        }
      ],
      "name": "isFarmer",
      "outputs": [
        {
          "internalType": "bool",
          "name": "",
          "type": "bool"
        }
      ],
      "stateMutability": "view",
      "type": "function",
      "constant": true
    }
  ],
  "bytecode": "0x60806040526200001533620000a760201b60201c565b62000026336200010260201b60201c565b62000037336200015e60201b60201c565b6200004833620001ba60201b60201c565b62000059336200021660201b60201c565b3360055f6101000a81548173ffffffffffffffffffffffffffffffffffffffff021916908373ffffffffffffffffffffffffffffffffffffffff1602179055506001600681905550620003ac565b620000bc815f6200027260201b90919060201c565b8073ffffffffffffffffffffffffffffffffffffffff167f2e0ded4123377a3c2bc9a26f1717655a129e2f20752924d42e730ec89c83dbd060405160405180910390a250565b620001188160016200027260201b90919060201c565b8073ffffffffffffffffffffffffffffffffffffffff167f9cc959082142e774951fd55b8a182ee2f64f645df132747f6d526ddb421ce13160405160405180910390a250565b620001748160026200027260201b90919060201c565b8073ffffffffffffffffffffffffffffffffffffffff167f5df5311009aa97175f52fb3639d210c182688926d6ffc79ea14b70b487ba16ff60405160405180910390a250565b620001d08160036200027260201b90919060201c565b8073ffffffffffffffffffffffffffffffffffffffff167fbc600b1f03d316c479b49930c28e328809316458d5b5dacbb7419df5f6f8964760405160405180910390a250565b6200022c8160046200027260201b90919060201c565b8073ffffffffffffffffffffffffffffffffffffffff167f28b26e7a3d20aedbc5f8f2ebf7da671c0491723a2b78f47a097b0e46dee0714260405160405180910390a250565b5f73ffffffffffffffffffffffffffffffffffffffff168173ffffffffffffffffffffffffffffffffffffffff1603620002aa575f80fd5b620002bc82826200032060201b60201c565b15620002c6575f80fd5b6001825f015f8373ffffffffffffffffffffffffffffffffffffffff1673ffffffffffffffffffffffffffffffffffffffff1681526020019081526020015f205f6101000a81548160ff0219169083151502179055505050565b5f8073ffffffffffffffffffffffffffffffffffffffff168273ffffffffffffffffffffffffffffffffffffffff160362000359575f80fd5b825f015f8373ffffffffffffffffffffffffffffffffffffffff1673ffffffffffffffffffffffffffffffffffffffff1681526020019081526020015f205f9054906101000a900460ff16905092915050565b61154680620003ba5f395ff3fe608060405234801561000f575f80fd5b5060043610610086575f3560e01c806380c3f96d1161005957806380c3f96d146100fa578063864905ba1461011657806393e3063314610151578063b94290691461016d57610086565b80630bacfb731461008a578063112940f9146100a65780637798bfda146100c25780637d51ff9a146100de575b5f80fd5b6100a4600480360381019061009f9190610d1d565b61019d565b005b6100c060048036038101906100bb9190610d1d565b6101a9565b005b6100dc60048036038101906100d79190610d1d565b6101b5565b005b6100f860048036038101906100f39190610eb7565b6101c1565b005b610114600480360381019061010f9190610d1d565b610585565b005b610130600480360381019061012b9190610f37565b610591565b6040516101489c9b9a9998979695949392919061106d565b60405180910390f35b61016b60048036038101906101669190610d1d565b61099b565b005b61018760048036038101906101829190610d1d565b6109a7565b604051610194919061114d565b60405180910390f35b6101a6816109c2565b50565b6101b281610a1c565b50565b6101be81610a76565b50565b6101ca336109a7565b610209576040517f08c379a0000000000000000000000000000000000000000000000000000000008152600401610200906111b0565b60405180910390fd5b6040518061018001604052808581526020013373ffffffffffffffffffffffffffffffffffffffff1681526020018473ffffffffffffffffffffffffffffffffffffffff16815260200183815260200160405180602001604052805f81525081526020015f81526020018281526020015f600481111561028c5761028b610ffa565b5b81526020015f73ffffffffffffffffffffffffffffffffffffffff1681526020015f73ffffffffffffffffffffffffffffffffffffffff1681526020015f73ffffffffffffffffffffffffffffffffffffffff1681526020015f73ffffffffffffffffffffffffffffffffffffffff1681525060075f8681526020019081526020015f205f820151815f01556020820151816001015f6101000a81548173ffffffffffffffffffffffffffffffffffffffff021916908373ffffffffffffffffffffffffffffffffffffffff1602179055506040820151816002015f6101000a81548173ffffffffffffffffffffffffffffffffffffffff021916908373ffffffffffffffffffffffffffffffffffffffff16021790555060608201518160030190816103b991906113c8565b5060808201518160040190816103cf91906113c8565b5060a0820151816005015560c0820151816006015560e0820151816007015f6101000a81548160ff0219169083600481111561040e5761040d610ffa565b5b02179055506101008201518160070160016101000a81548173ffffffffffffffffffffffffffffffffffffffff021916908373ffffffffffffffffffffffffffffffffffffffff160217905550610120820151816008015f6101000a81548173ffffffffffffffffffffffffffffffffffffffff021916908373ffffffffffffffffffffffffffffffffffffffff160217905550610140820151816009015f6101000a81548173ffffffffffffffffffffffffffffffffffffffff021916908373ffffffffffffffffffffffffffffffffffffffff16021790555061016082015181600a015f6101000a81548173ffffffffffffffffffffffffffffffffffffffff021916908373ffffffffffffffffffffffffffffffffffffffff160217905550905050600160065461054291906114c4565b6006819055507f9b3b66e2380b690bae22c73ef1428fb0c91e72fe14a4b6defa13035214187aff8460405161057791906114f7565b60405180910390a150505050565b61058e81610ad0565b50565b5f805f6060805f805f805f805f8060075f8f81526020019081526020015f20604051806101800160405290815f8201548152602001600182015f9054906101000a900473ffffffffffffffffffffffffffffffffffffffff1673ffffffffffffffffffffffffffffffffffffffff1673ffffffffffffffffffffffffffffffffffffffff168152602001600282015f9054906101000a900473ffffffffffffffffffffffffffffffffffffffff1673ffffffffffffffffffffffffffffffffffffffff1673ffffffffffffffffffffffffffffffffffffffff16815260200160038201805461067f906111fb565b80601f01602080910402602001604051908101604052809291908181526020018280546106ab906111fb565b80156106f65780601f106106cd576101008083540402835291602001916106f6565b820191905f5260205f20905b8154815290600101906020018083116106d957829003601f168201915b5050505050815260200160048201805461070f906111fb565b80601f016020809104026020016040519081016040528092919081815260200182805461073b906111fb565b80156107865780601f1061075d57610100808354040283529160200191610786565b820191905f5260205f20905b81548152906001019060200180831161076957829003601f168201915b505050505081526020016005820154815260200160068201548152602001600782015f9054906101000a900460ff1660048111156107c7576107c6610ffa565b5b60048111156107d9576107d8610ffa565b5b81526020016007820160019054906101000a900473ffffffffffffffffffffffffffffffffffffffff1673ffffffffffffffffffffffffffffffffffffffff1673ffffffffffffffffffffffffffffffffffffffff168152602001600882015f9054906101000a900473ffffffffffffffffffffffffffffffffffffffff1673ffffffffffffffffffffffffffffffffffffffff1673ffffffffffffffffffffffffffffffffffffffff168152602001600982015f9054906101000a900473ffffffffffffffffffffffffffffffffffffffff1673ffffffffffffffffffffffffffffffffffffffff1673ffffffffffffffffffffffffffffffffffffffff168152602001600a82015f9054906101000a900473ffffffffffffffffffffffffffffffffffffffff1673ffffffffffffffffffffffffffffffffffffffff1673ffffffffffffffffffffffffffffffffffffffff16815250509050805f01519c5080602001519b5080604001519a5080606001519950806080015198508060a0015197508060c0015196508060e00151955080610100015194508061012001519350806101400151925080610160015191505091939597999b5091939597999b565b6109a481610b29565b50565b5f6109bb825f610b8390919063ffffffff16565b9050919050565b6109d6816002610c0e90919063ffffffff16565b8073ffffffffffffffffffffffffffffffffffffffff167f5df5311009aa97175f52fb3639d210c182688926d6ffc79ea14b70b487ba16ff60405160405180910390a250565b610a30816004610c0e90919063ffffffff16565b8073ffffffffffffffffffffffffffffffffffffffff167f28b26e7a3d20aedbc5f8f2ebf7da671c0491723a2b78f47a097b0e46dee0714260405160405180910390a250565b610a8a816001610c0e90919063ffffffff16565b8073ffffffffffffffffffffffffffffffffffffffff167f9cc959082142e774951fd55b8a182ee2f64f645df132747f6d526ddb421ce13160405160405180910390a250565b610ae3815f610c0e90919063ffffffff16565b8073ffffffffffffffffffffffffffffffffffffffff167f2e0ded4123377a3c2bc9a26f1717655a129e2f20752924d42e730ec89c83dbd060405160405180910390a250565b610b3d816003610c0e90919063ffffffff16565b8073ffffffffffffffffffffffffffffffffffffffff167fbc600b1f03d316c479b49930c28e328809316458d5b5dacbb7419df5f6f8964760405160405180910390a250565b5f8073ffffffffffffffffffffffffffffffffffffffff168273ffffffffffffffffffffffffffffffffffffffff1603610bbb575f80fd5b825f015f8373ffffffffffffffffffffffffffffffffffffffff1673ffffffffffffffffffffffffffffffffffffffff1681526020019081526020015f205f9054906101000a900460ff16905092915050565b5f73ffffffffffffffffffffffffffffffffffffffff168173ffffffffffffffffffffffffffffffffffffffff1603610c45575f80fd5b610c4f8282610b83565b15610c58575f80fd5b6001825f015f8373ffffffffffffffffffffffffffffffffffffffff1673ffffffffffffffffffffffffffffffffffffffff1681526020019081526020015f205f6101000a81548160ff0219169083151502179055505050565b5f604051905090565b5f80fd5b5f80fd5b5f73ffffffffffffffffffffffffffffffffffffffff82169050919050565b5f610cec82610cc3565b9050919050565b610cfc81610ce2565b8114610d06575f80fd5b50565b5f81359050610d1781610cf3565b92915050565b5f60208284031215610d3257610d31610cbb565b5b5f610d3f84828501610d09565b91505092915050565b5f819050919050565b610d5a81610d48565b8114610d64575f80fd5b50565b5f81359050610d7581610d51565b92915050565b5f80fd5b5f80fd5b5f601f19601f8301169050919050565b7f4e487b71000000000000000000000000000000000000000000000000000000005f52604160045260245ffd5b610dc982610d83565b810181811067ffffffffffffffff82111715610de857610de7610d93565b5b80604052505050565b5f610dfa610cb2565b9050610e068282610dc0565b919050565b5f67ffffffffffffffff821115610e2557610e24610d93565b5b610e2e82610d83565b9050602081019050919050565b828183375f83830152505050565b5f610e5b610e5684610e0b565b610df1565b905082815260208101848484011115610e7757610e76610d7f565b5b610e82848285610e3b565b509392505050565b5f82601f830112610e9e57610e9d610d7b565b5b8135610eae848260208601610e49565b91505092915050565b5f805f8060808587031215610ecf57610ece610cbb565b5b5f610edc87828801610d67565b9450506020610eed87828801610d09565b935050604085013567ffffffffffffffff811115610f0e57610f0d610cbf565b5b610f1a87828801610e8a565b9250506060610f2b87828801610d67565b91505092959194509250565b5f60208284031215610f4c57610f4b610cbb565b5b5f610f5984828501610d67565b91505092915050565b610f6b81610d48565b82525050565b610f7a81610ce2565b82525050565b5f81519050919050565b5f82825260208201905092915050565b5f5b83811015610fb7578082015181840152602081019050610f9c565b5f8484015250505050565b5f610fcc82610f80565b610fd68185610f8a565b9350610fe6818560208601610f9a565b610fef81610d83565b840191505092915050565b7f4e487b71000000000000000000000000000000000000000000000000000000005f52602160045260245ffd5b6005811061103857611037610ffa565b5b50565b5f81905061104882611027565b919050565b5f6110578261103b565b9050919050565b6110678161104d565b82525050565b5f610180820190506110815f83018f610f62565b61108e602083018e610f71565b61109b604083018d610f71565b81810360608301526110ad818c610fc2565b905081810360808301526110c1818b610fc2565b90506110d060a083018a610f62565b6110dd60c0830189610f62565b6110ea60e083018861105e565b6110f8610100830187610f71565b611106610120830186610f71565b611114610140830185610f71565b611122610160830184610f71565b9d9c50505050505050505050505050565b5f8115159050919050565b61114781611133565b82525050565b5f6020820190506111605f83018461113e565b92915050565b7f4e6f742061204661726d657200000000000000000000000000000000000000005f82015250565b5f61119a600c83610f8a565b91506111a582611166565b602082019050919050565b5f6020820190508181035f8301526111c78161118e565b9050919050565b7f4e487b71000000000000000000000000000000000000000000000000000000005f52602260045260245ffd5b5f600282049050600182168061121257607f821691505b602082108103611225576112246111ce565b5b50919050565b5f819050815f5260205f209050919050565b5f6020601f8301049050919050565b5f82821b905092915050565b5f600883026112877fffffffffffffffffffffffffffffffffffffffffffffffffffffffffffffffff8261124c565b611291868361124c565b95508019841693508086168417925050509392505050565b5f819050919050565b5f6112cc6112c76112c284610d48565b6112a9565b610d48565b9050919050565b5f819050919050565b6112e5836112b2565b6112f96112f1826112d3565b848454611258565b825550505050565b5f90565b61130d611301565b6113188184846112dc565b505050565b5b8181101561133b576113305f82611305565b60018101905061131e565b5050565b601f821115611380576113518161122b565b61135a8461123d565b81016020851015611369578190505b61137d6113758561123d565b83018261131d565b50505b505050565b5f82821c905092915050565b5f6113a05f1984600802611385565b1980831691505092915050565b5f6113b88383611391565b9150826002028217905092915050565b6113d182610f80565b67ffffffffffffffff8111156113ea576113e9610d93565b5b6113f482546111fb565b6113ff82828561133f565b5f60209050601f831160018114611430575f841561141e578287015190505b61142885826113ad565b86555061148f565b601f19841661143e8661122b565b5f5b8281101561146557848901518255600182019150602085019450602081019050611440565b86831015611482578489015161147e601f891682611391565b8355505b6001600288020188555050505b505050505050565b7f4e487b71000000000000000000000000000000000000000000000000000000005f52601160045260245ffd5b5f6114ce82610d48565b91506114d983610d48565b92508282019050808211156114f1576114f0611497565b5b92915050565b5f60208201905061150a5f830184610f62565b9291505056fea2646970667358221220e56423e7f008cd357c4c87faa448fc02f046fd7e5c4ca5399f2d8667d9b5293d64736f6c63430008150033",
  "immutableReferences": {},
  "source": "// SPDX-License-Identifier: TFT-1.0.0\r\n\r\npragma solidity ^0.8.21;\r\n\r\n\r\nimport \"./ManageEgg.sol\";\r\n\r\n\r\ncontract Gateway is ManageEgg {\r\n  constructor()  payable{\r\n\r\n  }\r\n\r\n // function kill() public onlyOwner{\r\n //   selfdestruct(msg.sender);\r\n // }\r\n\r\n // function transferOwner(address newOwner) public onlyOwner{\r\n //   transferOwnership(newOwner);\r\n // }\r\n}\r\n",
  "sourcePath": "C:\\Users\\ggiul\\egg-chain\\eth-egg-chain-react\\contracts\\Gateway.sol",
  "compiler": {
    "name": "solc",
    "version": "0.8.21+commit.d9974bed.Emscripten.clang"
  },
  "schemaVersion": "3.4.16",
  "updatedAt": "2023-12-06T15:54:19.702Z",
  "networkType": "ethereum",
  "devdoc": {
    "kind": "dev",
    "methods": {},
    "version": 1
  },
  "userdoc": {
    "kind": "user",
    "methods": {},
    "version": 1
  }
}