{
  "contractName": "Gateway",
  "abi": [
    {
      "inputs": [],
      "stateMutability": "payable",
      "type": "constructor",
      "payable": true
    },
    {
      "anonymous": false,
      "inputs": [
        {
          "indexed": true,
          "internalType": "address",
          "name": "account",
          "type": "address"
        }
      ],
      "name": "ConsumerAdded",
      "type": "event"
    },
    {
      "anonymous": false,
      "inputs": [
        {
          "indexed": true,
          "internalType": "address",
          "name": "account",
          "type": "address"
        }
      ],
      "name": "DeliverAdded",
      "type": "event"
    },
    {
      "anonymous": false,
      "inputs": [
        {
          "indexed": true,
          "internalType": "address",
          "name": "account",
          "type": "address"
        }
      ],
      "name": "FarmerAdded",
      "type": "event"
    },
    {
      "anonymous": false,
      "inputs": [
        {
          "indexed": true,
          "internalType": "address",
          "name": "account",
          "type": "address"
        }
      ],
      "name": "FoodFactoryAdded",
      "type": "event"
    },
    {
      "anonymous": false,
      "inputs": [
        {
          "indexed": true,
          "internalType": "address",
          "name": "account",
          "type": "address"
        }
      ],
      "name": "MarketAdded",
      "type": "event"
    },
    {
      "inputs": [
        {
          "internalType": "address",
          "name": "account",
          "type": "address"
        }
      ],
      "name": "addConsumer",
      "outputs": [],
      "stateMutability": "nonpayable",
      "type": "function"
    },
    {
      "inputs": [
        {
          "internalType": "address",
          "name": "account",
          "type": "address"
        }
      ],
      "name": "addDeliver",
      "outputs": [],
      "stateMutability": "nonpayable",
      "type": "function"
    },
    {
      "inputs": [
        {
          "internalType": "address",
          "name": "account",
          "type": "address"
        }
      ],
      "name": "addFarmer",
      "outputs": [],
      "stateMutability": "nonpayable",
      "type": "function"
    },
    {
      "inputs": [
        {
          "internalType": "address",
          "name": "account",
          "type": "address"
        }
      ],
      "name": "addFoodFactory",
      "outputs": [],
      "stateMutability": "nonpayable",
      "type": "function"
    },
    {
      "inputs": [
        {
          "internalType": "address",
          "name": "account",
          "type": "address"
        }
      ],
      "name": "addMarket",
      "outputs": [],
      "stateMutability": "nonpayable",
      "type": "function"
    }
  ],
  "bytecode": "0x60806040526100133361005460201b60201c565b610022336100ad60201b60201c565b6100313361010760201b60201c565b6100403361016160201b60201c565b61004f336101bb60201b60201c565b61034a565b610067815f61021560201b90919060201c565b8073ffffffffffffffffffffffffffffffffffffffff167f2e0ded4123377a3c2bc9a26f1717655a129e2f20752924d42e730ec89c83dbd060405160405180910390a250565b6100c181600161021560201b90919060201c565b8073ffffffffffffffffffffffffffffffffffffffff167f9cc959082142e774951fd55b8a182ee2f64f645df132747f6d526ddb421ce13160405160405180910390a250565b61011b81600261021560201b90919060201c565b8073ffffffffffffffffffffffffffffffffffffffff167f28b26e7a3d20aedbc5f8f2ebf7da671c0491723a2b78f47a097b0e46dee0714260405160405180910390a250565b61017581600361021560201b90919060201c565b8073ffffffffffffffffffffffffffffffffffffffff167f5df5311009aa97175f52fb3639d210c182688926d6ffc79ea14b70b487ba16ff60405160405180910390a250565b6101cf81600461021560201b90919060201c565b8073ffffffffffffffffffffffffffffffffffffffff167fbc600b1f03d316c479b49930c28e328809316458d5b5dacbb7419df5f6f8964760405160405180910390a250565b5f73ffffffffffffffffffffffffffffffffffffffff168173ffffffffffffffffffffffffffffffffffffffff160361024c575f80fd5b61025c82826102bf60201b60201c565b15610265575f80fd5b6001825f015f8373ffffffffffffffffffffffffffffffffffffffff1673ffffffffffffffffffffffffffffffffffffffff1681526020019081526020015f205f6101000a81548160ff0219169083151502179055505050565b5f8073ffffffffffffffffffffffffffffffffffffffff168273ffffffffffffffffffffffffffffffffffffffff16036102f7575f80fd5b825f015f8373ffffffffffffffffffffffffffffffffffffffff1673ffffffffffffffffffffffffffffffffffffffff1681526020019081526020015f205f9054906101000a900460ff16905092915050565b6104d0806103575f395ff3fe608060405234801561000f575f80fd5b5060043610610055575f3560e01c80630bacfb7314610059578063112940f9146100755780637798bfda1461009157806380c3f96d146100ad57806393e30633146100c9575b5f80fd5b610073600480360381019061006e919061046f565b6100e5565b005b61008f600480360381019061008a919061046f565b6100f1565b005b6100ab60048036038101906100a6919061046f565b6100fd565b005b6100c760048036038101906100c2919061046f565b610109565b005b6100e360048036038101906100de919061046f565b610115565b005b6100ee81610121565b50565b6100fa8161017b565b50565b610106816101d5565b50565b6101128161022f565b50565b61011e81610288565b50565b6101358160036102e290919063ffffffff16565b8073ffffffffffffffffffffffffffffffffffffffff167f5df5311009aa97175f52fb3639d210c182688926d6ffc79ea14b70b487ba16ff60405160405180910390a250565b61018f8160026102e290919063ffffffff16565b8073ffffffffffffffffffffffffffffffffffffffff167f28b26e7a3d20aedbc5f8f2ebf7da671c0491723a2b78f47a097b0e46dee0714260405160405180910390a250565b6101e98160016102e290919063ffffffff16565b8073ffffffffffffffffffffffffffffffffffffffff167f9cc959082142e774951fd55b8a182ee2f64f645df132747f6d526ddb421ce13160405160405180910390a250565b610242815f6102e290919063ffffffff16565b8073ffffffffffffffffffffffffffffffffffffffff167f2e0ded4123377a3c2bc9a26f1717655a129e2f20752924d42e730ec89c83dbd060405160405180910390a250565b61029c8160046102e290919063ffffffff16565b8073ffffffffffffffffffffffffffffffffffffffff167fbc600b1f03d316c479b49930c28e328809316458d5b5dacbb7419df5f6f8964760405160405180910390a250565b5f73ffffffffffffffffffffffffffffffffffffffff168173ffffffffffffffffffffffffffffffffffffffff1603610319575f80fd5b6103238282610386565b1561032c575f80fd5b6001825f015f8373ffffffffffffffffffffffffffffffffffffffff1673ffffffffffffffffffffffffffffffffffffffff1681526020019081526020015f205f6101000a81548160ff0219169083151502179055505050565b5f8073ffffffffffffffffffffffffffffffffffffffff168273ffffffffffffffffffffffffffffffffffffffff16036103be575f80fd5b825f015f8373ffffffffffffffffffffffffffffffffffffffff1673ffffffffffffffffffffffffffffffffffffffff1681526020019081526020015f205f9054906101000a900460ff16905092915050565b5f80fd5b5f73ffffffffffffffffffffffffffffffffffffffff82169050919050565b5f61043e82610415565b9050919050565b61044e81610434565b8114610458575f80fd5b50565b5f8135905061046981610445565b92915050565b5f6020828403121561048457610483610411565b5b5f6104918482850161045b565b9150509291505056fea2646970667358221220dabb53579211064635d9024c754dfd82c71aab50264b4f34756a841b480d325f64736f6c63430008150033",
  "immutableReferences": {},
  "source": "// SPDX-License-Identifier: TFT-1.0.0\r\n\r\npragma solidity ^0.8.21;\r\n\r\n\r\nimport \"./Farmer.sol\";\r\nimport \"./Deliver.sol\";\r\nimport \"./Consumer.sol\";\r\nimport \"./FoodFactory.sol\";\r\nimport \"./Market.sol\";\r\n\r\ncontract Gateway is Farmer,Deliver, Consumer,FoodFactory, Market{\r\n  constructor()  payable{\r\n\r\n  }\r\n\r\n // function kill() public onlyOwner{\r\n //   selfdestruct(msg.sender);\r\n // }\r\n\r\n // function transferOwner(address newOwner) public onlyOwner{\r\n //   transferOwnership(newOwner);\r\n // }\r\n}\r\n",
  "sourcePath": "C:\\Users\\ggiul\\egg-chain\\eth-egg-chain-react\\contracts\\Gateway.sol",
  "compiler": {
    "name": "solc",
    "version": "0.8.21+commit.d9974bed.Emscripten.clang"
  },
  "schemaVersion": "3.4.16",
  "updatedAt": "2023-12-04T21:21:14.386Z",
  "networkType": "ethereum",
  "devdoc": {
    "kind": "dev",
    "methods": {},
    "version": 1
  },
  "userdoc": {
    "kind": "user",
    "methods": {},
    "version": 1
  }
}