{
  "contractName": "ManageEgg",
  "abi": [
    {
      "inputs": [],
      "stateMutability": "payable",
      "type": "constructor"
    },
    {
      "anonymous": false,
      "inputs": [
        {
          "indexed": true,
          "internalType": "address",
          "name": "account",
          "type": "address"
        }
      ],
      "name": "ConsumerAdded",
      "type": "event"
    },
    {
      "anonymous": false,
      "inputs": [
        {
          "indexed": false,
          "internalType": "uint256",
          "name": "id",
          "type": "uint256"
        }
      ],
      "name": "ConsumerBought",
      "type": "event"
    },
    {
      "anonymous": false,
      "inputs": [
        {
          "indexed": true,
          "internalType": "address",
          "name": "account",
          "type": "address"
        }
      ],
      "name": "DeliverAdded",
      "type": "event"
    },
    {
      "anonymous": false,
      "inputs": [
        {
          "indexed": false,
          "internalType": "uint256",
          "name": "id",
          "type": "uint256"
        }
      ],
      "name": "Delivered",
      "type": "event"
    },
    {
      "anonymous": false,
      "inputs": [
        {
          "indexed": false,
          "internalType": "uint256",
          "name": "id",
          "type": "uint256"
        }
      ],
      "name": "FactoryBought",
      "type": "event"
    },
    {
      "anonymous": false,
      "inputs": [
        {
          "indexed": true,
          "internalType": "address",
          "name": "account",
          "type": "address"
        }
      ],
      "name": "FarmerAdded",
      "type": "event"
    },
    {
      "anonymous": false,
      "inputs": [
        {
          "indexed": true,
          "internalType": "address",
          "name": "account",
          "type": "address"
        }
      ],
      "name": "FoodFactoryAdded",
      "type": "event"
    },
    {
      "anonymous": false,
      "inputs": [
        {
          "indexed": true,
          "internalType": "address",
          "name": "account",
          "type": "address"
        }
      ],
      "name": "MarketAdded",
      "type": "event"
    },
    {
      "anonymous": false,
      "inputs": [
        {
          "indexed": false,
          "internalType": "uint256",
          "name": "id",
          "type": "uint256"
        }
      ],
      "name": "MarketArrived",
      "type": "event"
    },
    {
      "anonymous": false,
      "inputs": [
        {
          "indexed": false,
          "internalType": "uint256",
          "name": "id",
          "type": "uint256"
        }
      ],
      "name": "Packed",
      "type": "event"
    },
    {
      "inputs": [
        {
          "internalType": "address",
          "name": "account",
          "type": "address"
        }
      ],
      "name": "addConsumer",
      "outputs": [],
      "stateMutability": "nonpayable",
      "type": "function"
    },
    {
      "inputs": [
        {
          "internalType": "address",
          "name": "account",
          "type": "address"
        }
      ],
      "name": "addDeliver",
      "outputs": [],
      "stateMutability": "nonpayable",
      "type": "function"
    },
    {
      "inputs": [
        {
          "internalType": "address",
          "name": "account",
          "type": "address"
        }
      ],
      "name": "addFarmer",
      "outputs": [],
      "stateMutability": "nonpayable",
      "type": "function"
    },
    {
      "inputs": [
        {
          "internalType": "address",
          "name": "account",
          "type": "address"
        }
      ],
      "name": "addFoodFactory",
      "outputs": [],
      "stateMutability": "nonpayable",
      "type": "function"
    },
    {
      "inputs": [
        {
          "internalType": "address",
          "name": "account",
          "type": "address"
        }
      ],
      "name": "addMarket",
      "outputs": [],
      "stateMutability": "nonpayable",
      "type": "function"
    },
    {
      "inputs": [
        {
          "internalType": "address",
          "name": "account",
          "type": "address"
        }
      ],
      "name": "isFarmer",
      "outputs": [
        {
          "internalType": "bool",
          "name": "",
          "type": "bool"
        }
      ],
      "stateMutability": "view",
      "type": "function"
    },
    {
      "inputs": [
        {
          "internalType": "uint256",
          "name": "idEgg",
          "type": "uint256"
        },
        {
          "internalType": "address",
          "name": "farmerEggAddr",
          "type": "address"
        },
        {
          "internalType": "string",
          "name": "farmFrom",
          "type": "string"
        },
        {
          "internalType": "uint256",
          "name": "totEggs",
          "type": "uint256"
        }
      ],
      "name": "getAndPackEggs",
      "outputs": [],
      "stateMutability": "nonpayable",
      "type": "function"
    }
  ],
  "bytecode": "0x60806040526200001533620000a760201b60201c565b62000026336200010260201b60201c565b62000037336200015e60201b60201c565b6200004833620001ba60201b60201c565b62000059336200021660201b60201c565b3360055f6101000a81548173ffffffffffffffffffffffffffffffffffffffff021916908373ffffffffffffffffffffffffffffffffffffffff1602179055506001600681905550620003ac565b620000bc815f6200027260201b90919060201c565b8073ffffffffffffffffffffffffffffffffffffffff167f2e0ded4123377a3c2bc9a26f1717655a129e2f20752924d42e730ec89c83dbd060405160405180910390a250565b620001188160016200027260201b90919060201c565b8073ffffffffffffffffffffffffffffffffffffffff167f9cc959082142e774951fd55b8a182ee2f64f645df132747f6d526ddb421ce13160405160405180910390a250565b620001748160026200027260201b90919060201c565b8073ffffffffffffffffffffffffffffffffffffffff167f5df5311009aa97175f52fb3639d210c182688926d6ffc79ea14b70b487ba16ff60405160405180910390a250565b620001d08160036200027260201b90919060201c565b8073ffffffffffffffffffffffffffffffffffffffff167fbc600b1f03d316c479b49930c28e328809316458d5b5dacbb7419df5f6f8964760405160405180910390a250565b6200022c8160046200027260201b90919060201c565b8073ffffffffffffffffffffffffffffffffffffffff167f28b26e7a3d20aedbc5f8f2ebf7da671c0491723a2b78f47a097b0e46dee0714260405160405180910390a250565b5f73ffffffffffffffffffffffffffffffffffffffff168173ffffffffffffffffffffffffffffffffffffffff1603620002aa575f80fd5b620002bc82826200032060201b60201c565b15620002c6575f80fd5b6001825f015f8373ffffffffffffffffffffffffffffffffffffffff1673ffffffffffffffffffffffffffffffffffffffff1681526020019081526020015f205f6101000a81548160ff0219169083151502179055505050565b5f8073ffffffffffffffffffffffffffffffffffffffff168273ffffffffffffffffffffffffffffffffffffffff160362000359575f80fd5b825f015f8373ffffffffffffffffffffffffffffffffffffffff1673ffffffffffffffffffffffffffffffffffffffff1681526020019081526020015f205f9054906101000a900460ff16905092915050565b610f5080620003ba5f395ff3fe608060405234801561000f575f80fd5b506004361061007b575f3560e01c80637d51ff9a116100595780637d51ff9a146100d357806380c3f96d146100ef57806393e306331461010b578063b9429069146101275761007b565b80630bacfb731461007f578063112940f91461009b5780637798bfda146100b7575b5f80fd5b610099600480360381019061009491906108cd565b610157565b005b6100b560048036038101906100b091906108cd565b610163565b005b6100d160048036038101906100cc91906108cd565b61016f565b005b6100ed60048036038101906100e89190610a67565b61017b565b005b610109600480360381019061010491906108cd565b61053f565b005b610125600480360381019061012091906108cd565b61054b565b005b610141600480360381019061013c91906108cd565b610557565b60405161014e9190610b01565b60405180910390f35b61016081610572565b50565b61016c816105cc565b50565b61017881610626565b50565b61018433610557565b6101c3576040517f08c379a00000000000000000000000000000000000000000000000000000000081526004016101ba90610b74565b60405180910390fd5b6040518061018001604052808581526020013373ffffffffffffffffffffffffffffffffffffffff1681526020018473ffffffffffffffffffffffffffffffffffffffff16815260200183815260200160405180602001604052805f81525081526020015f81526020018281526020015f600481111561024657610245610b92565b5b81526020015f73ffffffffffffffffffffffffffffffffffffffff1681526020015f73ffffffffffffffffffffffffffffffffffffffff1681526020015f73ffffffffffffffffffffffffffffffffffffffff1681526020015f73ffffffffffffffffffffffffffffffffffffffff1681525060075f8681526020019081526020015f205f820151815f01556020820151816001015f6101000a81548173ffffffffffffffffffffffffffffffffffffffff021916908373ffffffffffffffffffffffffffffffffffffffff1602179055506040820151816002015f6101000a81548173ffffffffffffffffffffffffffffffffffffffff021916908373ffffffffffffffffffffffffffffffffffffffff16021790555060608201518160030190816103739190610dc3565b5060808201518160040190816103899190610dc3565b5060a0820151816005015560c0820151816006015560e0820151816007015f6101000a81548160ff021916908360048111156103c8576103c7610b92565b5b02179055506101008201518160070160016101000a81548173ffffffffffffffffffffffffffffffffffffffff021916908373ffffffffffffffffffffffffffffffffffffffff160217905550610120820151816008015f6101000a81548173ffffffffffffffffffffffffffffffffffffffff021916908373ffffffffffffffffffffffffffffffffffffffff160217905550610140820151816009015f6101000a81548173ffffffffffffffffffffffffffffffffffffffff021916908373ffffffffffffffffffffffffffffffffffffffff16021790555061016082015181600a015f6101000a81548173ffffffffffffffffffffffffffffffffffffffff021916908373ffffffffffffffffffffffffffffffffffffffff16021790555090505060016006546104fc9190610ebf565b6006819055507f9b3b66e2380b690bae22c73ef1428fb0c91e72fe14a4b6defa13035214187aff846040516105319190610f01565b60405180910390a150505050565b61054881610680565b50565b610554816106d9565b50565b5f61056b825f61073390919063ffffffff16565b9050919050565b6105868160026107be90919063ffffffff16565b8073ffffffffffffffffffffffffffffffffffffffff167f5df5311009aa97175f52fb3639d210c182688926d6ffc79ea14b70b487ba16ff60405160405180910390a250565b6105e08160046107be90919063ffffffff16565b8073ffffffffffffffffffffffffffffffffffffffff167f28b26e7a3d20aedbc5f8f2ebf7da671c0491723a2b78f47a097b0e46dee0714260405160405180910390a250565b61063a8160016107be90919063ffffffff16565b8073ffffffffffffffffffffffffffffffffffffffff167f9cc959082142e774951fd55b8a182ee2f64f645df132747f6d526ddb421ce13160405160405180910390a250565b610693815f6107be90919063ffffffff16565b8073ffffffffffffffffffffffffffffffffffffffff167f2e0ded4123377a3c2bc9a26f1717655a129e2f20752924d42e730ec89c83dbd060405160405180910390a250565b6106ed8160036107be90919063ffffffff16565b8073ffffffffffffffffffffffffffffffffffffffff167fbc600b1f03d316c479b49930c28e328809316458d5b5dacbb7419df5f6f8964760405160405180910390a250565b5f8073ffffffffffffffffffffffffffffffffffffffff168273ffffffffffffffffffffffffffffffffffffffff160361076b575f80fd5b825f015f8373ffffffffffffffffffffffffffffffffffffffff1673ffffffffffffffffffffffffffffffffffffffff1681526020019081526020015f205f9054906101000a900460ff16905092915050565b5f73ffffffffffffffffffffffffffffffffffffffff168173ffffffffffffffffffffffffffffffffffffffff16036107f5575f80fd5b6107ff8282610733565b15610808575f80fd5b6001825f015f8373ffffffffffffffffffffffffffffffffffffffff1673ffffffffffffffffffffffffffffffffffffffff1681526020019081526020015f205f6101000a81548160ff0219169083151502179055505050565b5f604051905090565b5f80fd5b5f80fd5b5f73ffffffffffffffffffffffffffffffffffffffff82169050919050565b5f61089c82610873565b9050919050565b6108ac81610892565b81146108b6575f80fd5b50565b5f813590506108c7816108a3565b92915050565b5f602082840312156108e2576108e161086b565b5b5f6108ef848285016108b9565b91505092915050565b5f819050919050565b61090a816108f8565b8114610914575f80fd5b50565b5f8135905061092581610901565b92915050565b5f80fd5b5f80fd5b5f601f19601f8301169050919050565b7f4e487b71000000000000000000000000000000000000000000000000000000005f52604160045260245ffd5b61097982610933565b810181811067ffffffffffffffff8211171561099857610997610943565b5b80604052505050565b5f6109aa610862565b90506109b68282610970565b919050565b5f67ffffffffffffffff8211156109d5576109d4610943565b5b6109de82610933565b9050602081019050919050565b828183375f83830152505050565b5f610a0b610a06846109bb565b6109a1565b905082815260208101848484011115610a2757610a2661092f565b5b610a328482856109eb565b509392505050565b5f82601f830112610a4e57610a4d61092b565b5b8135610a5e8482602086016109f9565b91505092915050565b5f805f8060808587031215610a7f57610a7e61086b565b5b5f610a8c87828801610917565b9450506020610a9d878288016108b9565b935050604085013567ffffffffffffffff811115610abe57610abd61086f565b5b610aca87828801610a3a565b9250506060610adb87828801610917565b91505092959194509250565b5f8115159050919050565b610afb81610ae7565b82525050565b5f602082019050610b145f830184610af2565b92915050565b5f82825260208201905092915050565b7f4e6f742061204661726d657200000000000000000000000000000000000000005f82015250565b5f610b5e600c83610b1a565b9150610b6982610b2a565b602082019050919050565b5f6020820190508181035f830152610b8b81610b52565b9050919050565b7f4e487b71000000000000000000000000000000000000000000000000000000005f52602160045260245ffd5b5f81519050919050565b7f4e487b71000000000000000000000000000000000000000000000000000000005f52602260045260245ffd5b5f6002820490506001821680610c0d57607f821691505b602082108103610c2057610c1f610bc9565b5b50919050565b5f819050815f5260205f209050919050565b5f6020601f8301049050919050565b5f82821b905092915050565b5f60088302610c827fffffffffffffffffffffffffffffffffffffffffffffffffffffffffffffffff82610c47565b610c8c8683610c47565b95508019841693508086168417925050509392505050565b5f819050919050565b5f610cc7610cc2610cbd846108f8565b610ca4565b6108f8565b9050919050565b5f819050919050565b610ce083610cad565b610cf4610cec82610cce565b848454610c53565b825550505050565b5f90565b610d08610cfc565b610d13818484610cd7565b505050565b5b81811015610d3657610d2b5f82610d00565b600181019050610d19565b5050565b601f821115610d7b57610d4c81610c26565b610d5584610c38565b81016020851015610d64578190505b610d78610d7085610c38565b830182610d18565b50505b505050565b5f82821c905092915050565b5f610d9b5f1984600802610d80565b1980831691505092915050565b5f610db38383610d8c565b9150826002028217905092915050565b610dcc82610bbf565b67ffffffffffffffff811115610de557610de4610943565b5b610def8254610bf6565b610dfa828285610d3a565b5f60209050601f831160018114610e2b575f8415610e19578287015190505b610e238582610da8565b865550610e8a565b601f198416610e3986610c26565b5f5b82811015610e6057848901518255600182019150602085019450602081019050610e3b565b86831015610e7d5784890151610e79601f891682610d8c565b8355505b6001600288020188555050505b505050505050565b7f4e487b71000000000000000000000000000000000000000000000000000000005f52601160045260245ffd5b5f610ec9826108f8565b9150610ed4836108f8565b9250828201905080821115610eec57610eeb610e92565b5b92915050565b610efb816108f8565b82525050565b5f602082019050610f145f830184610ef2565b9291505056fea26469706673582212208849d98707f64941aee5e11b96bcb4d225f27f8967155677023b7c5fa02b57f864736f6c63430008150033",
  "immutableReferences": {},
  "source": "\r\n\r\nimport \"./Farmer.sol\";\r\nimport \"./Deliver.sol\";\r\nimport \"./Consumer.sol\";\r\nimport \"./FoodFactory.sol\";\r\nimport \"./Market.sol\";\r\n\r\ncontract ManageEgg is Farmer, Deliver, FoodFactory, Market, Consumer{\r\n    address chickenOwner;\r\n\r\n     uint id;\r\n    \r\n     enum State{\r\n        Packed,\r\n        Delivered,\r\n        FactoryBought,\r\n        MarketArrived,\r\n        ConsumerBought\r\n     }\r\n\r\n    struct EggProduct  {\r\n        uint id;\r\n        address payable ownerID; \r\n        address farmerAddr;\r\n        string farm;\r\n        string note;\r\n        uint price;\r\n        uint totalEggsInPackage;\r\n        State eggState;\r\n        address deliveryAddr;\r\n        address marketAddr;\r\n        address payable foddFactoryAddr;\r\n        address payable consumerAddr;\r\n    }\r\n\r\n    //  mapping egg product\r\n    mapping(uint => EggProduct) eggProduct;\r\n    // mapping for history eggs\r\n    mapping(uint => string[]) eggHistory;\r\n\r\n    event Packed(uint id);\r\n    event Delivered(uint id);\r\n    event FactoryBought(uint id);\r\n    event MarketArrived(uint id);\r\n    event ConsumerBought(uint id);\r\n    \r\n\r\n    constructor()  payable{\r\n        chickenOwner = msg.sender;\r\n        id = 1;\r\n    }\r\n\r\n\r\n    function getAndPackEggs(uint idEgg, address farmerEggAddr, string memory farmFrom, uint totEggs) public onlyFarmer{\r\n        eggProduct[idEgg] = EggProduct({\r\n            id : idEgg,\r\n            ownerID: payable(msg.sender),\r\n            farmerAddr: farmerEggAddr,\r\n            farm: farmFrom,\r\n            note: \"\",\r\n            price: 0,\r\n            totalEggsInPackage: totEggs,\r\n            eggState: State.Packed,\r\n            deliveryAddr: address(0),\r\n            marketAddr: address(0),\r\n            foddFactoryAddr: payable(address(0)),\r\n            consumerAddr: payable(address(0))\r\n        });\r\n\r\n        id  = id + 1;\r\n        emit Packed(idEgg);\r\n    }\r\n\r\n}",
  "sourcePath": "C:\\Users\\ggiul\\egg-chain\\eth-egg-chain-react\\contracts\\ManageEgg.sol",
  "compiler": {
    "name": "solc",
    "version": "0.8.21+commit.d9974bed.Emscripten.clang"
  },
  "schemaVersion": "3.4.16",
  "updatedAt": "2023-12-04T23:49:45.458Z",
  "devdoc": {
    "kind": "dev",
    "methods": {},
    "version": 1
  },
  "userdoc": {
    "kind": "user",
    "methods": {},
    "version": 1
  }
}